0074068501040202002016-05-317752411343904 DEM. EFECTIVO         00000000001544.00MXP000000000CIVILESTIJUANA3               00000002016/05/31            C72   0000
0074068501040202002016-05-315913981343904 DEM. EFECTIVO         00000000003678.00MXP000000000CIVILESMEXICALI29             00000002016/05/31            C72   0000
0074068501040202002016-05-315907381343904 DEM. EFECTIVO         00000000000787.00MXP000000000CIVILESENSENADA4              00000002016/05/31            C72   0000
0074068501040202002016-05-31000181CARGO CHEQUE                  10000000001270.00MXP000000000C000000181ECTIVO              00000002016/05/31            C03   0000
0074068501040202002016-05-31000172DEPOSITO EFECTIVO/CHEQUE      00000000000333.00MXP0000000000001721                       00000002016/05/31            C02   0000
0074068501040202002016-05-31000171DEPOSITO EFECTIVO/CHEQUE      00000000000333.00MXP0000000000001719                       00000002016/05/31            C02   0000
0074068501040202002016-05-31000171DEPOSITO EFECTIVO/CHEQUE      00000000000454.00MXP00000000000017180BOLETIN               00000002016/05/31            C02   0000
0074068501040202002016-05-31000144CARGO CHEQUE                  10000000003849.00MXP000000000C000000144ECTIVO              00000002016/05/31            C03   0000
0074068501040202002016-05-31000001IVA COMISION DEPOSITO         10000000000180.57MXP00000000000001343904  SICOCO MAY 2016  00000002016/05/31            W20   0000
0074068501040202002016-05-31000001COM. DEPOSITO EMPRESARIAL     10000000001128.58MXP00000000000001343904  SICOCO MAY 2016  00000002016/05/31            W19   0000
0074068501040202002016-05-31000000DEPOSITO DE INVERSION         00000001064571.44MXP000000000                              00000002016/05/31            I01   0000
0074068501040202002016-05-31000000DEPOSITO DE INVERSION         00000041218918.66MXP000000000                              00000002016/05/31            I01   0000
0074068501040202002016-05-31000000PAGO A TERCEROS MISMA PLAZA CW10000000000494.50MXP000000000NUT 49809 ARCE LOPEZ OLIVERIO 00000002016/05/31            W01   0000
0074068501040202002016-05-31000000PAGO A TERCEROS MISMA PLAZA CW10000000000500.00MXP000000000NUT 48697 VALDEZ DE LUNA ALBER00000002016/05/31            W01   0000
0074068501040202002016-05-31000000PAGO A TERCEROS MISMA PLAZA CW10000000000513.95MXP000000000NUT 49647 TAMAYO CAMACHO HUMBE00000002016/05/31            W01   0000
0074068501040202002016-05-31000000PAGO A TERCEROS MISMA PLAZA CW10000000000735.25MXP000000000NUT 49518 TAFOLLA GONZALEZ CEN00000002016/05/31            W01   0000
0074068501040202002016-05-31000000PAGO A TERCEROS MISMA PLAZA CW10000000000790.00MXP000000000NUT 48779 DUARTE MAGANAN JORGE00000002016/05/31            W01   0000
0074068501040202002016-05-31000000PAGO A TERCEROS MISMA PLAZA CW10000000000804.75MXP000000000NUT 49102 CASTANEDA ALVAREZ JU00000002016/05/31            W01   0000
0074068501040202002016-05-31000000PAGO A TERCEROS MISMA PLAZA CW10000000000886.45MXP000000000NUT 49649 KIM SALAS NELSON GTO00000002016/05/31            W01   0000
0074068501040202002016-05-31000000PAGO A TERCEROS MISMA PLAZA CW10000000000941.15MXP000000000NUT 48988 SERRANO JIMENEZ FDO 00000002016/05/31            W01   0000
0074068501040202002016-05-31000000PAGO A TERCEROS MISMA PLAZA CW10000000001006.50MXP000000000NUT 48898 BALEON ZAMBRANO LUIS00000002016/05/31            W01   0000
0074068501040202002016-05-31000000PAGO A TERCEROS MISMA PLAZA CW10000000001101.39MXP000000000NUT 48748 ZEPEDA BERRELLEZA MA00000002016/05/31            W01   0000
0074068501040202002016-05-31000000PAGO A TERCEROS MISMA PLAZA CW10000000001112.92MXP000000000NUT 48731 REYNOSO GONZALEZ JES00000002016/05/31            W01   0000
0074068501040202002016-05-31000000PAGO A TERCEROS MISMA PLAZA CW10000000001193.90MXP000000000NUT 48786 MORONES PICHARDO JUA00000002016/05/31            W01   0000
0074068501040202002016-05-31000000PAGO A TERCEROS MISMA PLAZA CW10000000001336.35MXP000000000NUT 49332 FERRE ESPINOZA CARLO00000002016/05/31            W01   0000
0074068501040202002016-05-31000000PAGO A TERCEROS MISMA PLAZA CW10000000001418.56MXP000000000NUT 49648  MARTINEZ REYES FANN00000002016/05/31            W01   0000
0074068501040202002016-05-31000000PAGO A TERCEROS MISMA PLAZA CW10000000001444.00MXP000000000NUT 49701 TAFOLLA GLZ CENAIDA 00000002016/05/31            W01   0000
0074068501040202002016-05-31000000PAGO A TERCEROS MISMA PLAZA CW10000000001602.23MXP000000000NUT 49523 REYNOSO GLZ JESUS  G00000002016/05/31            W01   0000
0074068501040202002016-05-31000000PAGO A TERCEROS MISMA PLAZA CW10000000001605.00MXP000000000NUT 48783 MORALES MERCADO HILG00000002016/05/31            W01   0000
0074068501040202002016-05-31000000PAGO A TERCEROS MISMA PLAZA CW10000000001640.00MXP000000000NUT 49521 RUIZ GLZ RAMON DONAC00000002016/05/31            W01   0000
0074068501040202002016-05-31000000PAGO A TERCEROS MISMA PLAZA CW10000000001918.86MXP000000000NUT 49305 GTZ DE A PENA AMALIA00000002016/05/31            W01   0000
0074068501040202002016-05-31000000PAGO A TERCEROS MISMA PLAZA CW10000000001955.09MXP000000000GMM DEL 31 MAYO LIC. MALDONADO00000002016/05/31            W01   0000
0074068501040202002016-05-31000000PAGO A TERCEROS MISMA PLAZA CW10000000002195.21MXP000000000NUT 49785 KULJACHA LERMA ELSA 00000002016/05/31            W01   0000
0074068501040202002016-05-31000000PAGO A TERCEROS MISMA PLAZA CW10000000002213.95MXP000000000NUT 49749 VILLA SANTANA MIRIAM00000002016/05/31            W01   0000
0074068501040202002016-05-31000000PAGO A TERCEROS MISMA PLAZA CW10000000002263.18MXP000000000NUT 48991 NILA GLZ NORMA ANGEL00000002016/05/31            W01   0000
0074068501040202002016-05-31000000PAGO A TERCEROS MISMA PLAZA CW10000000002434.85MXP000000000NUT 49763 ARCE LOPEZ ROCIO MAR00000002016/05/31            W01   0000
0074068501040202002016-05-31000000PAGO A TERCEROS MISMA PLAZA CW10000000002524.21MXP000000000NUT 48713 RUIZ GLZ RAMON DONAC00000002016/05/31            W01   0000
0074068501040202002016-05-31000000PAGO A TERCEROS MISMA PLAZA CW10000000002689.15MXP000000000NUT 49696 IBARRA MACEDO SERGIO00000002016/05/31            W01   0000
0074068501040202002016-05-31000000PAGO A TERCEROS MISMA PLAZA CW10000000002742.00MXP000000000NUT 49458 MACALPIN ESPINOZA MA00000002016/05/31            W01   0000
0074068501040202002016-05-31000000PAGO A TERCEROS MISMA PLAZA CW10000000003035.52MXP000000000NUT 49495 FONSECA VIZCAINO ALF00000002016/05/31            W01   0000
0074068501040202002016-05-31000000PAGO A TERCEROS MISMA PLAZA CW10000000003135.86MXP000000000NUT 48727 LUNA HERRERA OMAR GT00000002016/05/31            W01   0000
0074068501040202002016-05-31000000PAGO A TERCEROS MISMA PLAZA CW10000000003733.37MXP000000000NUT 49493 VILLASENOR MORENO EV00000002016/05/31            W01   0000
0074068501040202002016-05-31000000PAGO A TERCEROS MISMA PLAZA CW10000000003840.01MXP000000000NUT 4931 CONTRERAS SALAZAR DOR00000002016/05/31            W01   0000
0074068501040202002016-05-31000000PAGO A TERCEROS MISMA PLAZA CW10000000003914.66MXP000000000NUT 49440 CASTILLA GRACIA ALVA00000002016/05/31            W01   0000
0074068501040202002016-05-31000000PAGO A TERCEROS MISMA PLAZA CW10000000003996.00MXP000000000NUT 49317 GALINDO HDEZ JAIME G00000002016/05/31            W01   0000
0074068501040202002016-05-31000000PAGO A TERCEROS MISMA PLAZA CW10000000004121.70MXP000000000NUT 49454 RUIZ SANDEZ MARIO FD00000002016/05/31            W01   0000
0074068501040202002016-05-31000000PAGO A TERCEROS MISMA PLAZA CW10000000005373.96MXP000000000NUT 49329 REYNOSO GONZALEZ JES00000002016/05/31            W01   0000
0074068501040202002016-05-31000000PAGO A TERCEROS MISMA PLAZA CW10000000007757.88MXP000000000GMM LIC. LOPEZ GALINDO        00000002016/05/31            W01   0000
0074068501040202002016-05-31000000CARGO TRASPASO MISMA PLAZA CW 10000000022942.39MXP000000000PAGO CHS APOYO COMBUSTIBLE    00000002016/05/31            W41   0000
0074068501040202002016-05-31000000CARGO TRASPASO MISMA PLAZA CW 10000000479623.50MXP000000000PAGO APOYO COMBUSTIBLE        00000002016/05/31            W41   0000
0074068501040202002016-05-31000000APERTURA DE INVERSION         10000001064571.44MXP000000000                              00000002016/05/31            I02   0000
0074068501040202002016-05-31000000APERTURA DE INVERSION         10000040635237.77MXP000000000                              00000002016/05/31            I02   0000
0074068501040202002016-05-31000000SALDO ULTIMA TRANS            20000000634948.44MXP000000000                              00000002016/05/31                  0000
0074068501040202002016-05-306954811343904 DEM. EFECTIVO         00000000001090.00MXP000000000CIVILESTIJUANA3               00000002016/05/30            C72   0000
0074068501040202002016-05-306930391343904 DEM. EFECTIVO         00000000001226.00MXP000000000CIVILESMEXICALI29             00000002016/05/30            C72   0000
0074068501040202002016-05-306919721343904 DEM. EFECTIVO         00000000003572.00MXP000000000CIVILESENSENADA4              00000002016/05/30            C72   0000
0074068501040202002016-05-30000282CARGO CHEQUE                  10000000032353.80MXP000000000C000000282ECTIVO              00000002016/05/28            C03   0000
0074068501040202002016-05-30000271CARGO CHEQUE                  10000000001881.86MXP000000000C000000271ECTIVO              00000002016/05/30            C03   0000
0074068501040202002016-05-30000265CARGO CHEQUE                  10000000001500.00MXP000000000C000000265ECTIVO              00000002016/05/30            C03   0000
0074068501040202002016-05-30000262CARGO CHEQUE                  10000000035412.70MXP000000000C000000262ECTIVO              00000002016/05/28            C03   0000
0074068501040202002016-05-30000227CARGO CHEQUE                  10000000002800.00MXP000000000C000000227ECTIVO              00000002016/05/28            C03   0000
0074068501040202002016-05-30000216CARGO CHEQUE                  10000000026851.42MXP000000000C000000216ECTIVO              00000002016/05/30            C03   0000
0074068501040202002016-05-30000167DEPOSITO EFECTIVO/CHEQUE      00000000000333.00MXP0000000000001671                       00000002016/05/30            C02   0000
0074068501040202002016-05-30000142CARGO CHEQUE                  10000000001039.50MXP000000000C000000142ECTIVO              00000002016/05/30            C03   0000
0074068501040202002016-05-30000000DEPOSITO DE INVERSION         00000001064465.58MXP000000000                              00000002016/05/30            I01   0000
0074068501040202002016-05-30000000DEPOSITO DE INVERSION         00000041214820.08MXP000000000                              00000002016/05/30            I01   0000
0074068501040202002016-05-30000000PAGO A TERCEROS MISMA PLAZA CW10000000000600.00MXP000000000NUT 49678 MUNOZ BELTRAN VICTOR00000002016/05/30            W01   0000
0074068501040202002016-05-30000000PAGO A TERCEROS MISMA PLAZA CW10000000000600.00MXP000000000NUT 49676 AGRAZ FITCH JORGE A 00000002016/05/30            W01   0000
0074068501040202002016-05-30000000PAGO A TERCEROS MISMA PLAZA CW10000000000700.00MXP000000000NUT 49688 AGRAMON GURROLA CLAU00000002016/05/30            W01   0000
0074068501040202002016-05-30000000PAGO A TERCEROS MISMA PLAZA CW10000000000802.50MXP000000000NUT 49677 MORALES LOPEZ CESAR 00000002016/05/30            W01   0000
0074068501040202002016-05-30000000PAGO A TERCEROS MISMA PLAZA CW10000000001309.20MXP000000000NUT 49747 VAZQUEZ FERNANDEZ VI00000002016/05/30            W01   0000
0074068501040202002016-05-30000000PAGO A TERCEROS MISMA PLAZA CW10000000002800.00MXP000000000NUT 49729 PEREZ NUNEZ MARCOS  00000002016/05/30            W01   0000
0074068501040202002016-05-30000000PAGO A TERCEROS MISMA PLAZA CW10000000003654.95MXP000000000NUT 49732 CASTELLANOS LUNA EMI00000002016/05/30            W01   0000
0074068501040202002016-05-30000000PAGO A TERCEROS MISMA PLAZA CW10000000006152.44MXP000000000NUT 49755 NIEBLA ARAMBURO MIRI00000002016/05/30            W01   0000
0074068501040202002016-05-30000000APERTURA DE INVERSION         10000001064465.58MXP000000000                              00000002016/05/30            I02   0000
0074068501040202002016-05-30000000APERTURA DE INVERSION         10000041214820.08MXP000000000                              00000002016/05/30            I02   0000
0074068501040202002016-05-30000000SALDO ULTIMA TRANS            20000000632104.95MXP000000000                              00000002016/05/30                  0000
0074068501040202002016-05-273224931343904 DEM. EFECTIVO         00000000003103.00MXP000000000CIVILESENSENADA4              00000002016/05/27            C72   0000
0074068501040202002016-05-272387941343904 DEM. EFECTIVO         00000000003890.00MXP000000000CIVILESMEXICALI29             00000002016/05/27            C72   0000
0074068501040202002016-05-27143343SPEI ENVIADO                  10000000019720.00MXP0000000000049417NUT 49417 HT INGENIERIA00000002016/05/27            T17   0000
0074068501040202002016-05-271334031343904 DEM. EFECTIVO         00000000000969.00MXP000000000CIVILESTIJUANA3               00000002016/05/27            C72   0000
0074068501040202002016-05-27131790SPEI ENVIADO                  10000000049481.25MXP0000000000044531NUT 44531 ALEJANDRO GUE00000002016/05/27            T17   0000
0074068501040202002016-05-27131788SPEI ENVIADO                  10000000006513.17MXP0000000000048181NUT 48181 CLIPS MART  M00000002016/05/27            T17   0000
0074068501040202002016-05-27131787SPEI ENVIADO                  10000000005544.80MXP0000000000048125NUT 48125 PROVEEDORA DE00000002016/05/27            T17   0000
0074068501040202002016-05-27131786SPEI ENVIADO                  10000000000292.32MXP0000000000048074NUT 48074 MACO  MATERIA00000002016/05/27            T17   0000
0074068501040202002016-05-27131785SPEI ENVIADO                  10000000009419.20MXP0000000000047516NUT 47516 MATERIALES ME00000002016/05/27            T17   0000
0074068501040202002016-05-27131784SPEI ENVIADO                  10000000021593.98MXP0000000000047439NUT 47439 JOSE ALFREDO 00000002016/05/27            T17   0000
0074068501040202002016-05-27131783SPEI ENVIADO                  10000000010516.17MXP0000000000046707NUT 46707 CLIP MART   M00000002016/05/27            T17   0000
0074068501040202002016-05-27131781SPEI ENVIADO                  10000000019750.53MXP0000000000046709NUT 43709 JOSE ANGEL GU00000002016/05/27            T17   0000
0074068501040202002016-05-27131780SPEI ENVIADO                  10000000000534.76MXP0000000000045003NUT 45003 MADERERIA LA 00000002016/05/27            T17   0000
0074068501040202002016-05-27131779SPEI ENVIADO                  10000000001856.00MXP0000000000048719NUT 48719 OLIVIA VILLEL00000002016/05/27            T17   0000
0074068501040202002016-05-27131778SPEI ENVIADO                  10000000012559.50MXP0000000000049163NUT 49163 ADMINISTRADOR00000002016/05/27            T17   0000
0074068501040202002016-05-27131777SPEI ENVIADO                  10000000002752.42MXP0000000000049170NUT 49170 ADMINISTRADOR00000002016/05/27            T17   0000
0074068501040202002016-05-27131776SPEI ENVIADO                  10000000002229.98MXP0000000000049175NUT 49175 ADMINISTRADOR00000002016/05/27            T17   0000
0074068501040202002016-05-27131775SPEI ENVIADO                  10000000001981.02MXP0000000000049177NUT 49177 GRUPO GARCIA 00000002016/05/27            T17   0000
0074068501040202002016-05-27131774SPEI ENVIADO                  10000000001901.43MXP0000000000049178NUT 49178 GRUPO GARCIA 00000002016/05/27            T17   0000
0074068501040202002016-05-27131771SPEI ENVIADO                  10000000005568.00MXP0000000000044534NUT 44534  VENTANAS Y C00000002016/05/27            T17   0000
0074068501040202002016-05-27131770SPEI ENVIADO                  10000000018555.47MXP0000000000048936NUT 48936 MEDAM SERVICI00000002016/05/27            T17   0000
0074068501040202002016-05-27131768SPEI ENVIADO                  10000000002876.80MXP0000000000047490NUT 47490 JOSE ENRIQUE 00000002016/05/27            T17   0000
0074068501040202002016-05-27131767SPEI ENVIADO                  10000000003190.00MXP0000000000047011NUT 47011 FOTO VENUS  M00000002016/05/27            T17   0000
0074068501040202002016-05-27131766SPEI ENVIADO                  10000000003596.00MXP0000000000047184NUT 47184 JOSE ENRIQUE 00000002016/05/27            T17   0000
0074068501040202002016-05-27131765SPEI ENVIADO                  10000000003176.08MXP0000000000047109NUT 47109 ASESORES EN D00000002016/05/27            T17   0000
0074068501040202002016-05-27131764SPEI ENVIADO                  10000000002876.80MXP0000000000047489NUT 47489 JOSE ENRIQUE 00000002016/05/27            T17   0000
0074068501040202002016-05-27131763SPEI ENVIADO                  10000000006264.00MXP0000000000044845NUT 44845 COMERCIALIZAD00000002016/05/27            T17   0000
0074068501040202002016-05-27131762SPEI ENVIADO                  10000000005568.00MXP0000000000042267NUT 42267 HYGIENE ECOLO00000002016/05/27            T17   0000
0074068501040202002016-05-27131761SPEI ENVIADO                  10000000048180.02MXP0000000000047673NUT 47673 PROVEEDORA  P00000002016/05/27            T17   0000
0074068501040202002016-05-27131760SPEI ENVIADO                  10000000147244.02MXP0000000000047670NUT 47670 PROVEEDORA  P00000002016/05/27            T17   0000
0074068501040202002016-05-27131759SPEI ENVIADO                  10000000118713.30MXP0000000000047671NUT 47671 PROVEEDORA  P00000002016/05/27            T17   0000
0074068501040202002016-05-27131758SPEI ENVIADO                  10000000017503.01MXP0000000000046517NUT 46517 ASESORES EN D00000002016/05/27            T17   0000
0074068501040202002016-05-27131757SPEI ENVIADO                  10000000109670.00MXP0000000000048217NUT 48217 AYUNTAMIENTO 00000002016/05/27            T17   0000
0074068501040202002016-05-27131756SPEI ENVIADO                  10000000000823.60MXP0000000000048976NUT 48976 RENE INES LOP00000002016/05/27            T17   0000
0074068501040202002016-05-27131755SPEI ENVIADO                  10000000003320.00MXP0000000000048685NUT 48685 MANANTIALES D00000002016/05/27            T17   0000
0074068501040202002016-05-27131754SPEI ENVIADO                  10000000028691.81MXP0000000000047567NUT 47567 CESAR FDO ROB00000002016/05/27            T17   0000
0074068501040202002016-05-27131753SPEI ENVIADO                  10000000007023.00MXP0000000000049143NUT 49143 GPO CULTURAL 00000002016/05/27            T17   0000
0074068501040202002016-05-27131752SPEI ENVIADO                  10000000002378.00MXP0000000000048244NUT  48244 ALFREDO ELIS00000002016/05/27            T17   0000
0074068501040202002016-05-27131751SPEI ENVIADO                  10000000005057.60MXP0000000000047658NUT 47658 ALFREDO ELISE00000002016/05/27            T17   0000
0074068501040202002016-05-27130840SPEI ENVIADO                  10000000065213.00MXP0000000000049545NUT 49545 GENERAL DE   00000002016/05/27            T17   0000
0074068501040202002016-05-27130839SPEI ENVIADO                  10000000065728.00MXP0000000000049681NUT 49681 GENERAL DE SE00000002016/05/27            T17   0000
0074068501040202002016-05-27130837SPEI ENVIADO                  10000000006403.00MXP0000000000049679NUT 49679 SIXTO AMADOR 00000002016/05/27            T17   0000
0074068501040202002016-05-27130836SPEI ENVIADO                  10000000008100.00MXP0000000000049680NUT 49680 OCHOA BRAMBIL00000002016/05/27            T17   0000
0074068501040202002016-05-27130835SPEI ENVIADO                  10000000006403.00MXP0000000000049544NUT 49544 SIXTO AMADOR 00000002016/05/27            T17   0000
0074068501040202002016-05-27130834SPEI ENVIADO                  10000000001147.16MXP0000000000049675NUT 49675 ZACARIAS CORO00000002016/05/27            T17   0000
0074068501040202002016-05-27130833SPEI ENVIADO                  10000000001527.78MXP0000000000049674NUT 49674 OLGUIN MARTIN00000002016/05/27            T17   0000
0074068501040202002016-05-27130832SPEI ENVIADO                  10000000001926.80MXP0000000000049672NUT 49672 JAHZEEL GABRI00000002016/05/27            T17   0000
0074068501040202002016-05-27130831SPEI ENVIADO                  10000000001114.94MXP0000000000049671NUT 49671 SALGADO ZARAG00000002016/05/27            T17   0000
0074068501040202002016-05-27130830SPEI ENVIADO                  10000000000856.98MXP0000000000049670NUT 49670 ADRIANA ORTIZ00000002016/05/27            T17   0000
0074068501040202002016-05-27130828SPEI ENVIADO                  10000000001735.00MXP0000000000049669NUT 49669 CRUZ DEL CARM00000002016/05/27            T17   0000
0074068501040202002016-05-27130827SPEI ENVIADO                  10000000001063.71MXP0000000000049666NUT 49666 MERCEDES ALAR00000002016/05/27            T17   0000
0074068501040202002016-05-27130826SPEI ENVIADO                  10000000000466.70MXP0000000000049664NUT 49664 VIANEY CASAS 00000002016/05/27            T17   0000
0074068501040202002016-05-27130825SPEI ENVIADO                  10000000001669.26MXP0000000000049660NUT 49660 MICHEL CARMIN00000002016/05/27            T17   0000
0074068501040202002016-05-27130824SPEI ENVIADO                  10000000002344.19MXP0000000000049659NUT 49659 ROCIO VERONIC00000002016/05/27            T17   0000
0074068501040202002016-05-27130823SPEI ENVIADO                  10000000192547.34MXP0000000000049657NUT 49657 AHORRO DE TRB00000002016/05/27            T17   0000
0074068501040202002016-05-27130821SPEI ENVIADO                  10000000221313.25MXP0000000000049651NUT 49651 SERV FINANCIE00000002016/05/27            T17   0000
0074068501040202002016-05-27130820SPEI ENVIADO                  10000000023260.33MXP0000000000049652NUT 49652 GARCIA GARCIA00000002016/05/27            T17   0000
0074068501040202002016-05-27130819SPEI ENVIADO                  10000000008750.00MXP0000000000049653NUT 49653 BRIZ DORAME K00000002016/05/27            T17   0000
0074068501040202002016-05-27130818SPEI ENVIADO                  10000000267665.78MXP0000000000049655NUT 49655 SISTEMA DE AH00000002016/05/27            T17   0000
0074068501040202002016-05-27130816SPEI ENVIADO                  10000000140664.44MXP0000000000049658NUT 49658 ATPJZC ENSENA00000002016/05/27            T17   0000
0074068501040202002016-05-27130814SPEI ENVIADO                  10000000111222.72MXP0000000000048896NUT 48896 SINIDCATO SEC00000002016/05/27            T17   0000
0074068501040202002016-05-27053831SPEI ENVIADO                  10000000045604.16MXP0000000002705168PAGO CAT 29 MAYO16     00000002016/05/27            T17   0000
0074068501040202002016-05-27052845SPEI ENVIADO                  10000000085481.89MXP0000000002705168PAGO NOM CAT 29 MAYO16 00000002016/05/27            T17   0000
0074068501040202002016-05-27000293CARGO CHEQUE                  10000000010000.00MXP000000000C000000293ECTIVO              00000002016/05/27            C03   0000
0074068501040202002016-05-27000283CARGO CHEQUE                  10000000074614.99MXP000000000C000000283ECTIVO              00000002016/05/27            C03   0000
0074068501040202002016-05-27000274CARGO CHEQUE                  10000000000600.00MXP000000000C000000274 DE DEPOSITO:GEB460300000002016/05/27            C03   0000
0074068501040202002016-05-27000190CARGO CHEQUE                  10000000009758.67MXP000000000C000000190ECTIVO              00000002016/05/27            C03   0000
0074068501040202002016-05-27000164DEPOSITO EFECTIVO/CHEQUE      00000000000560.00MXP0000000000001648                       00000002016/05/27            C02   0000
0074068501040202002016-05-27000164DEPOSITO EFECTIVO/CHEQUE      00000000000787.00MXP0000000000001647                       00000002016/05/27            C02   0000
0074068501040202002016-05-27000164DEPOSITO EFECTIVO/CHEQUE      00000000000560.00MXP0000000000001646                       00000002016/05/27            C02   0000
0074068501040202002016-05-27000164DEPOSITO EFECTIVO/CHEQUE      00000000000666.00MXP00000000000016450BOLETIN               00000002016/05/27            C02   0000
0074068501040202002016-05-27000156DEPOSITO EFECTIVO/CHEQUE      00000000000942.00MXP0000000000001560                       00000002016/05/27            C02   0000
0074068501040202002016-05-27000000DEPOSITO DE INVERSION         00000001064148.11MXP000000000                              00000002016/05/27            I01   0000
0074068501040202002016-05-27000000DEPOSITO DE INVERSION         00000053193818.97MXP000000000                              00000002016/05/27            I01   0000
0074068501040202002016-05-27000000PAGO A TERCEROS MISMA PLAZA CW10000000000114.00MXP000000000NUT 49204 ENERGETICOS EN RED C00000002016/05/27            W01   0000
0074068501040202002016-05-27000000PAGO A TERCEROS MISMA PLAZA CW10000000001022.58MXP000000000NUT 49324 CESP TIJUANA  MES DE00000002016/05/27            W01   0000
0074068501040202002016-05-27000000PAGO A TERCEROS MISMA PLAZA CW10000000001063.71MXP000000000NUT 49662 MARICELA DURON MANRI00000002016/05/27            W01   0000
0074068501040202002016-05-27000000PAGO A TERCEROS MISMA PLAZA CW10000000001478.97MXP000000000NUT 49668 OSORIO FLROES NANCY 00000002016/05/27            W01   0000
0074068501040202002016-05-27000000PAGO A TERCEROS MISMA PLAZA CW10000000001647.56MXP000000000NUT 49325 CESP TIJUANA  AGUA P00000002016/05/27            W01   0000
0074068501040202002016-05-27000000PAGO A TERCEROS MISMA PLAZA CW10000000001700.00MXP000000000NUT 49640 VASQUEZ JORGE ARMAND00000002016/05/27            W01   0000
0074068501040202002016-05-27000000PAGO A TERCEROS MISMA PLAZA CW10000000002500.00MXP000000000NUT 49188 PALAFOX MARTINEZ ALV00000002016/05/27            W01   0000
0074068501040202002016-05-27000000PAGO A TERCEROS MISMA PLAZA CW10000000003563.59MXP000000000NUT 49201 ENERGETICOS EN RED E00000002016/05/27            W01   0000
0074068501040202002016-05-27000000PAGO A TERCEROS MISMA PLAZA CW10000000003580.00MXP000000000NUT 49682 SIXTO AMADOR HDI  NO00000002016/05/27            W01   0000
0074068501040202002016-05-27000000PAGO A TERCEROS MISMA PLAZA CW10000000003580.00MXP000000000NUT 49546 SIXTO AMADOR HDI SEG00000002016/05/27            W01   0000
0074068501040202002016-05-27000000PAGO A TERCEROS MISMA PLAZA CW10000000004558.29MXP000000000NUT 49351 HOTELERA CORAL  HOSP00000002016/05/27            W01   0000
0074068501040202002016-05-27000000PAGO A TERCEROS MISMA PLAZA CW10000000005194.94MXP000000000NUT 46133 SKIT INDUSTRIAL  MAT00000002016/05/27            W01   0000
0074068501040202002016-05-27000000PAGO A TERCEROS MISMA PLAZA CW10000000006730.32MXP000000000NUT 47891 YASMIN GLZ SANCHEZ M00000002016/05/27            W01   0000
0074068501040202002016-05-27000000PAGO A TERCEROS MISMA PLAZA CW10000000008810.20MXP000000000NUT 46742 IMPRESOS Y PAPELERIA00000002016/05/27            W01   0000
0074068501040202002016-05-27000000PAGO A TERCEROS MISMA PLAZA CW10000000010013.12MXP000000000NUT 47028 COMPUPROVEEDORES MAT00000002016/05/27            W01   0000
0074068501040202002016-05-27000000PAGO A TERCEROS MISMA PLAZA CW10000000016124.75MXP000000000NUT 49099 ELEVADORES EV INTERN00000002016/05/27            W01   0000
0074068501040202002016-05-27000000PAGO A TERCEROS MISMA PLAZA CW10000000016124.75MXP000000000NUT 49091 ELEVADORES EV INTERN00000002016/05/27            W01   0000
0074068501040202002016-05-27000000PAGO A TERCEROS MISMA PLAZA CW10000000016124.75MXP000000000NUT 49095 ELEVADORES EV INTERN00000002016/05/27            W01   0000
0074068501040202002016-05-27000000PAGO A TERCEROS MISMA PLAZA CW10000000021301.68MXP000000000NUT 45153 SINDICATO TIJ FINANZ00000002016/05/27            W01   0000
0074068501040202002016-05-27000000PAGO A TERCEROS MISMA PLAZA CW10000000030246.90MXP000000000NUT 48122 SINDICATO TIJ FINANZ00000002016/05/27            W01   0000
0074068501040202002016-05-27000000PAGO A TERCEROS MISMA PLAZA CW10000000030278.65MXP000000000NUT 48928 SINDICTO TIJ FINANZA00000002016/05/27            W01   0000
0074068501040202002016-05-27000000CARGO TRASPASO MISMA PLAZA CW 10000000038500.00MXP0000000000195259649                    00000002016/05/27            W41   0000
0074068501040202002016-05-27000000PAGO A TERCEROS MISMA PLAZA CW10000000109320.12MXP000000000NUT 49656 AHORRO DE TRABAJADOR00000002016/05/27            W01   0000
0074068501040202002016-05-27000000CARGO TRASPASO MISMA PLAZA CW 10000000173092.30MXP000000000PAGO NOM CAT 29 MAYO          00000002016/05/27            W41   0000
0074068501040202002016-05-27000000APERTURA DE INVERSION         10000001064148.11MXP000000000                              00000002016/05/27            I02   0000
0074068501040202002016-05-27000000CARGO TRASPASO MISMA PLAZA CW 10000009144444.02MXP000000000PAO NOM CAT 29 MAYO16         00000002016/05/27            W41   0000
0074068501040202002016-05-27000000APERTURA DE INVERSION         10000041202527.99MXP000000000                              00000002016/05/27            I02   0000
0074068501040202002016-05-27000000SALDO ULTIMA TRANS            20000000744342.32MXP000000000                              00000002016/05/27                  0000
0074068501040202002016-05-268872731343904 DEM. EFECTIVO         00000000001241.00MXP000000000CIVILESENSENADA4              00000002016/05/26            C72   0000
0074068501040202002016-05-268020671343904 DEM. EFECTIVO         00000000003890.00MXP000000000CIVILESMEXICALI29             00000002016/05/26            C72   0000
0074068501040202002016-05-26134167SPEI RECIBIDO    0000001      00000002632558.46MXP000000000SEGUN INSTRUCCIONES DEL CLIENT00000002016/05/26            T20   0000
0074068501040202002016-05-260312021343904 DEM. EFECTIVO         00000000002952.00MXP000000000CIVILESTIJUANA3               00000002016/05/26            C72   0000
0074068501040202002016-05-26000273CARGO CHEQUE                  10000000005000.00MXP000000000C000000273ECTIVO              00000002016/05/26            C03   0000
0074068501040202002016-05-26000272CARGO CHEQUE                  10000000004000.00MXP000000000C000000272ECTIVO              00000002016/05/26            C03   0000
0074068501040202002016-05-26000267CARGO CHEQUE                  10000000035425.78MXP000000000C000000267ECTIVO              00000002016/05/26            C03   0000
0074068501040202002016-05-26000242CARGO CHEQUE                  10000000004475.66MXP000000000C000000242ECTIVO              00000002016/05/26            C03   0000
0074068501040202002016-05-26000224CARGO CHEQUE                  10000000001231.26MXP000000000C000000224ECTIVO              00000002016/05/26            C03   0000
0074068501040202002016-05-26000000ABONO TRASPASO MISMA PLAZA CW 00000000014507.53MXP000000000PAGO AL PJ POR ADEUDOS DIF CON00000002016/05/26            W42   0000
0074068501040202002016-05-26000000ABONO TRASPASO MISMA PLAZA CW 00000000019516.79MXP000000000PAGO AL P.J FALTANTES EN TRASP00000002016/05/26            W42   0000
0074068501040202002016-05-26000000DEPOSITO DE INVERSION         00000001064042.30MXP000000000                              00000002016/05/26            I01   0000
0074068501040202002016-05-26000000DEPOSITO DE INVERSION         00000050580631.12MXP000000000                              00000002016/05/26            I01   0000
0074068501040202002016-05-26000000PAGO A TERCEROS MISMA PLAZA CW10000000000600.00MXP000000000NUT 49542 LOPEZ ROMAN EVANGELI00000002016/05/26            W01   0000
0074068501040202002016-05-26000000PAGO A TERCEROS MISMA PLAZA CW10000000000800.00MXP000000000NUT 48823 GONZALEZ ARIAS RAUL 00000002016/05/26            W01   0000
0074068501040202002016-05-26000000PAGO A TERCEROS MISMA PLAZA CW10000000001700.00MXP000000000NUT 49465  AGRAMON GURROLA CLA00000002016/05/26            W01   0000
0074068501040202002016-05-26000000PAGO A TERCEROS MISMA PLAZA CW10000000001805.30MXP000000000NUT 49526 JIMENEZ CARRILLO MAR00000002016/05/26            W01   0000
0074068501040202002016-05-26000000PAGO A TERCEROS MISMA PLAZA CW10000000002200.00MXP000000000NUT 49552 LEPE HERNANDEZ JESUS00000002016/05/26            W01   0000
0074068501040202002016-05-26000000PAGO A TERCEROS MISMA PLAZA CW10000000003300.00MXP000000000NUT 49554 DIAZ CERVANTES HECTO00000002016/05/26            W01   0000
0074068501040202002016-05-26000000CARGO TRASPASO MISMA PLAZA CW 10000000058684.23MXP000000000PAGO AL FA POR ADEUDOS DIF CON00000002016/05/26            W41   0000
0074068501040202002016-05-26000000APERTURA DE INVERSION         10000001064042.30MXP000000000                              00000002016/05/26            I02   0000
0074068501040202002016-05-26000000APERTURA DE INVERSION         10000053188529.67MXP000000000                              00000002016/05/26            I02   0000
0074068501040202002016-05-26000000SALDO ULTIMA TRANS            20000000456794.67MXP000000000                              00000002016/05/26                  0000
0074068501040202002016-05-253337531343904 DEM. EFECTIVO         00000000003648.00MXP000000000CIVILESMEXICALI29             00000002016/05/25            C72   0000
0074068501040202002016-05-253326751343904 DEM. EFECTIVO         00000000002240.00MXP000000000CIVILESENSENADA4              00000002016/05/25            C72   0000
0074068501040202002016-05-252150081343904 DEM. EFECTIVO         00000000000757.00MXP000000000CIVILESTIJUANA3               00000002016/05/25            C72   0000
0074068501040202002016-05-25059186SPEI ENVIADO                  10000003337241.28MXP0000000002505168PAGO FIDEICOMISO 3A CAT00000002016/05/25            T17   0000
0074068501040202002016-05-25000264CARGO CHEQUE                  10000000000600.00MXP000000000C000000264ECTIVO              00000002016/05/25            C03   0000
0074068501040202002016-05-25000263CARGO CHEQUE                  10000000000600.00MXP000000000C000000263ECTIVO              00000002016/05/25            C03   0000
0074068501040202002016-05-25000260CARGO CHEQUE                  10000000000538.50MXP000000000C000000260 DE DEPOSITO:GEB460300000002016/05/25            C03   0000
0074068501040202002016-05-25000259CARGO CHEQUE                  10000000004630.30MXP000000000C000000259 DE DEPOSITO:GEB460300000002016/05/25            C03   0000
0074068501040202002016-05-25000152DEPOSITO EFECTIVO/CHEQUE      00000000000666.00MXP0000000000001526                       00000002016/05/25            C02   0000
0074068501040202002016-05-25000152DEPOSITO EFECTIVO/CHEQUE      00000000000969.00MXP00000000000015250BOLETIN               00000002016/05/25            C02   0000
0074068501040202002016-05-25000000DEPOSITO DE INVERSION         00000001063936.50MXP000000000                              00000002016/05/25            I01   0000
0074068501040202002016-05-25000000DEPOSITO DE INVERSION         00000053912842.94MXP000000000                              00000002016/05/25            I01   0000
0074068501040202002016-05-25000000PAGO A TERCEROS MISMA PLAZA CW10000000000428.00MXP000000000NUT 49428 DIAZ CERVANTES HECTO00000002016/05/25            W01   0000
0074068501040202002016-05-25000000PAGO A TERCEROS MISMA PLAZA CW10000000000600.00MXP000000000NUT 49383 MEGLIOLI GTZ PIERLUI00000002016/05/25            W01   0000
0074068501040202002016-05-25000000PAGO A TERCEROS MISMA PLAZA CW10000000000961.00MXP000000000NUT 49441 AGRAMON GURROLA CLAU00000002016/05/25            W01   0000
0074068501040202002016-05-25000000PAGO A TERCEROS MISMA PLAZA CW10000000001786.82MXP000000000NUT 49452 MUNOZ BELTRAN VICTOR00000002016/05/25            W01   0000
0074068501040202002016-05-25000000PAGO A TERCEROS MISMA PLAZA CW10000000001975.43MXP000000000NUT 49453 BELTRAN ALMADA SONIA00000002016/05/25            W01   0000
0074068501040202002016-05-25000000PAGO A TERCEROS MISMA PLAZA CW10000000002500.00MXP000000000NUT 49187 PALAFOX MARTINEZ ALV00000002016/05/25            W01   0000
0074068501040202002016-05-25000000APERTURA DE INVERSION         10000001063936.50MXP000000000                              00000002016/05/25            I02   0000
0074068501040202002016-05-25000000APERTURA DE INVERSION         10000050575601.66MXP000000000                              00000002016/05/25            I02   0000
0074068501040202002016-05-25000000SALDO ULTIMA TRANS            20000000509249.67MXP000000000                              00000002016/05/25                  0000
0074068501040202002016-05-248966571343904 DEM. EFECTIVO         00000000003451.00MXP000000000CIVILESENSENADA4              00000002016/05/24            C72   0000
0074068501040202002016-05-247956441343904 DEM. EFECTIVO         00000000001014.00MXP000000000CIVILESMEXICALI29             00000002016/05/24            C72   0000
0074068501040202002016-05-246711901343904 DEM. EFECTIVO         00000000001226.00MXP000000000CIVILESTIJUANA3               00000002016/05/24            C72   0000
0074068501040202002016-05-24111175SPEI RECIBIDO    0002405      00000000020000.00MXP000000000RETIRO SALDO EN CUENTA        00000002016/05/24            T20   0000
0074068501040202002016-05-24000266CARGO CHEQUE                  10000000006643.00MXP000000000C000000266ECTIVO              00000002016/05/24            C03   0000
0074068501040202002016-05-24000251CARGO CHEQUE                  10000000001632.00MXP000000000C000000251ECTIVO              00000002016/05/24            C03   0000
0074068501040202002016-05-24000248CARGO CHEQUE                  10000000003200.00MXP000000000C000000248 DE DEPOSITO:RUVL91000000002016/05/24            C03   0000
0074068501040202002016-05-24000246CARGO CHEQUE                  10000000000880.00MXP000000000C000000246ECTIVO              00000002016/05/24            C03   0000
0074068501040202002016-05-24000202CARGO CHEQUE                  10000000002558.76MXP000000000C000000202 DE DEPOSITO:TATT86000000002016/05/24            C03   0000
0074068501040202002016-05-24000201CARGO CHEQUE                  10000000002979.45MXP000000000C000000201 DE DEPOSITO:TATT86000000002016/05/24            C03   0000
0074068501040202002016-05-24000150DEPOSITO EFECTIVO/CHEQUE      00000000000439.00MXP00000000000015050BOLETIN               00000002016/05/24            C02   0000
0074068501040202002016-05-24000150DEPOSITO EFECTIVO/CHEQUE      00000000000333.00MXP0000000000001506                       00000002016/05/24            C02   0000
0074068501040202002016-05-24000148DEPOSITO EFECTIVO/CHEQUE      00000000019230.00MXP0000000000001482                       00000002016/05/24            C02   0000
0074068501040202002016-05-24000148DEPOSITO EFECTIVO/CHEQUE      00000000000059.00MXP0000000000001489                       00000002016/05/24            C02   0000
0074068501040202002016-05-24000148DEPOSITO EFECTIVO/CHEQUE      00000000000340.00MXP0000000000001481                       00000002016/05/24            C02   0000
0074068501040202002016-05-24000000DEPOSITO DE INVERSION         00000001063830.71MXP000000000                              00000002016/05/24            I01   0000
0074068501040202002016-05-24000000DEPOSITO DE INVERSION         00000053907482.14MXP000000000                              00000002016/05/24            I01   0000
0074068501040202002016-05-24000000PAGO A TERCEROS MISMA PLAZA CW10000000000469.00MXP000000000NUT 49087 AGRAZ FITCH JORGE AL00000002016/05/24            W01   0000
0074068501040202002016-05-24000000PAGO A TERCEROS MISMA PLAZA CW10000000000600.00MXP000000000NUT 49142 LOPEZ ROMAN EVANGELI00000002016/05/24            W01   0000
0074068501040202002016-05-24000000PAGO A TERCEROS MISMA PLAZA CW10000000000600.00MXP000000000NUT 49136 MEZA OCHOA ROSA YADI00000002016/05/24            W01   0000
0074068501040202002016-05-24000000PAGO A TERCEROS MISMA PLAZA CW10000000000600.00MXP000000000NUT 49297 LOPEZ ROMAN EVANGELI00000002016/05/24            W01   0000
0074068501040202002016-05-24000000PAGO A TERCEROS MISMA PLAZA CW10000000000650.05MXP000000000NUT 49086 AGRAZ FITCH JORGE A 00000002016/05/24            W01   0000
0074068501040202002016-05-24000000PAGO A TERCEROS MISMA PLAZA CW10000000001000.00MXP000000000NUT 48761 MORENO BERNAL SALVAD00000002016/05/24            W01   0000
0074068501040202002016-05-24000000PAGO A TERCEROS MISMA PLAZA CW10000000001208.85MXP000000000NUT 49357 RENTERIA IBARRA MARI00000002016/05/24            W01   0000
0074068501040202002016-05-24000000PAGO A TERCEROS MISMA PLAZA CW10000000001547.94MXP000000000NUT 48706 PEREZ NUNEZ MARCOS F00000002016/05/24            W01   0000
0074068501040202002016-05-24000000PAGO A TERCEROS MISMA PLAZA CW10000000001895.87MXP000000000NUT 49319 VAZQUEZ FERNANDEZ VI00000002016/05/24            W01   0000
0074068501040202002016-05-24000000PAGO A TERCEROS MISMA PLAZA CW10000000002200.00MXP000000000NUT 49328 CUADROS CORDOVA MARI00000002016/05/24            W01   0000
0074068501040202002016-05-24000000PAGO A TERCEROS MISMA PLAZA CW10000000002330.70MXP000000000NUT 49377 ARCE LOPEZ OLIVAERIO00000002016/05/24            W01   0000
0074068501040202002016-05-24000000PAGO A TERCEROS MISMA PLAZA CW10000000002500.00MXP000000000NUT 49186 PALAFOX MTZ ALVARO V00000002016/05/24            W01   0000
0074068501040202002016-05-24000000PAGO A TERCEROS MISMA PLAZA CW10000000003891.69MXP000000000NUT 49298 LOPEZ MEZA FAUSTO AR00000002016/05/24            W01   0000
0074068501040202002016-05-24000000PAGO A TERCEROS MISMA PLAZA CW10000000007344.09MXP000000000NUT 48692 AGRAZ FITCH JORGE A 00000002016/05/24            W01   0000
0074068501040202002016-05-24000000PAGO A TERCEROS MISMA PLAZA CW10000000008019.94MXP000000000NUT 48989 MORENO BERNAL SALVAD00000002016/05/24            W01   0000
0074068501040202002016-05-24000000PAGO A TERCEROS MISMA PLAZA CW10000000008880.89MXP000000000NUT 49041 MUNOZ BELTRAN VICTOR00000002016/05/24            W01   0000
0074068501040202002016-05-24000000APERTURA DE INVERSION         10000001063830.71MXP000000000                              00000002016/05/24            I02   0000
0074068501040202002016-05-24000000APERTURA DE INVERSION         10000053907482.14MXP000000000                              00000002016/05/24            I02   0000
0074068501040202002016-05-24000000SALDO ULTIMA TRANS            20000000515589.72MXP000000000                              00000002016/05/24                  0000
0074068501040202002016-05-239833601343904 DEM. EFECTIVO         00000000002387.00MXP000000000CIVILESTIJUANA3               00000002016/05/23            C72   0000
0074068501040202002016-05-239802691343904 DEM. EFECTIVO         00000000005403.00MXP000000000CIVILESMEXICALI29             00000002016/05/23            C72   0000
0074068501040202002016-05-239794001343904 DEM. EFECTIVO         00000000001347.00MXP000000000CIVILESENSENADA4              00000002016/05/23            C72   0000
0074068501040202002016-05-23000250CARGO CHEQUE                  10000000007000.00MXP000000000C000000250ECTIVO              00000002016/05/23            C03   0000
0074068501040202002016-05-23000232CARGO CHEQUE                  10000000020536.82MXP000000000C000000232 DE DEPOSITO:ISS710100000002016/05/23            C03   0000
0074068501040202002016-05-23000231CARGO CHEQUE                  10000000107247.84MXP000000000C000000231 DE DEPOSITO:ISS710100000002016/05/23            C03   0000
0074068501040202002016-05-23000220CARGO CHEQUE                  10000000020094.68MXP000000000C000000220ECTIVO              00000002016/05/23            C03   0000
0074068501040202002016-05-23000215CARGO CHEQUE                  10000000001776.07MXP000000000C000000215ECTIVO              00000002016/05/23            C03   0000
0074068501040202002016-05-23000213CARGO CHEQUE                  10000000007676.62MXP000000000C000000213ECTIVO              00000002016/05/23            C03   0000
0074068501040202002016-05-23000206CARGO CHEQUE                  10000000001270.00MXP000000000C000000206ECTIVO              00000002016/05/23            C03   0000
0074068501040202002016-05-23000124CARGO CHEQUE                  10000000032434.54MXP000000000C000000124 DE DEPOSITO:SUT380900000002016/05/23            C03   0000
0074068501040202002016-05-23000000DEPOSITO DE INVERSION         00000001063724.93MXP000000000                              00000002016/05/23            I01   0000
0074068501040202002016-05-23000000DEPOSITO DE INVERSION         00000058467376.90MXP000000000                              00000002016/05/23            I01   0000
0074068501040202002016-05-23000000PAGO A TERCEROS MISMA PLAZA CW10000000000700.00MXP000000000GMM LIC. SONIA MIREYA BELTRAN 00000002016/05/23            W01   0000
0074068501040202002016-05-23000000PAGO A TERCEROS MISMA PLAZA CW10000000007765.00MXP00000000049350 GASTOS MEDICOS MENORES  00000002016/05/23            W01   0000
0074068501040202002016-05-23000000APERTURA DE INVERSION         10000001063724.93MXP000000000                              00000002016/05/23            I02   0000
0074068501040202002016-05-23000000PAGO A TERCEROS MISMA PLAZA CW10000002014581.91MXP000000000NUT 49171 ISSSTECALI NOM 12 3000000002016/05/23            W01   0000
0074068501040202002016-05-23000000PAGO A TERCEROS MISMA PLAZA CW10000002550673.12MXP000000000NUT 49167 ISSSTECALI NOM 1230 00000002016/05/23            W01   0000
0074068501040202002016-05-23000000APERTURA DE INVERSION         10000053902121.87MXP000000000                              00000002016/05/23            I02   0000
0074068501040202002016-05-23000000SALDO ULTIMA TRANS            20000000531129.95MXP000000000                              00000002016/05/23                  0000
0074068501040202002016-05-205957311343904 DEM. EFECTIVO         00000000001453.00MXP000000000CIVILESENSENADA4              00000002016/05/20            C72   0000
0074068501040202002016-05-205267611343904 DEM. EFECTIVO         00000000004102.00MXP000000000CIVILESMEXICALI29             00000002016/05/20            C72   0000
0074068501040202002016-05-203988751343904 DEM. EFECTIVO         00000000003479.00MXP000000000CIVILESTIJUANA3               00000002016/05/20            C72   0000
0074068501040202002016-05-20120555SPEI ENVIADO                  10000000008135.08MXP0000000000048322NUT 48322 SERV PUBLICTI00000002016/05/20            T17   0000
0074068501040202002016-05-20120554SPEI ENVIADO                  10000000015080.00MXP0000000000047007NUT 47007 LUIS A MENDEZ00000002016/05/20            T17   0000
0074068501040202002016-05-20120553SPEI ENVIADO                  10000000036140.80MXP0000000000048825NUT 48825 PROTECCION  I00000002016/05/20            T17   0000
0074068501040202002016-05-20120552SPEI ENVIADO                  10000000034521.60MXP0000000000048939NUT 48939 PROTECCION  I00000002016/05/20            T17   0000
0074068501040202002016-05-20120551SPEI ENVIADO                  10000000017806.00MXP0000000000048309NUT 48309 GARCIA BENITE00000002016/05/20            T17   0000
0074068501040202002016-05-20120550SPEI ENVIADO                  10000000054689.52MXP0000000000048979NUT 48979 MALEOCA ARREN00000002016/05/20            T17   0000
0074068501040202002016-05-20120549SPEI ENVIADO                  10000000005916.00MXP0000000000048245NUT 48245 SALVADOR RAMI00000002016/05/20            T17   0000
0074068501040202002016-05-20120548SPEI ENVIADO                  10000000011797.20MXP0000000000048240NUT 48240 SALVADOR RAMI00000002016/05/20            T17   0000
0074068501040202002016-05-20120547SPEI ENVIADO                  10000000003169.12MXP0000000000048051NUT  48051 VENTANAS Y C00000002016/05/20            T17   0000
0074068501040202002016-05-20120546SPEI ENVIADO                  10000000001160.00MXP0000000000048634NUT 48634 VENTANAS Y  C00000002016/05/20            T17   0000
0074068501040202002016-05-20120545SPEI ENVIADO                  10000000002778.00MXP0000000000048842NUT 48842 GASRMEX GASOL00000002016/05/20            T17   0000
0074068501040202002016-05-20120544SPEI ENVIADO                  10000000001710.48MXP0000000000048633NUT 48633 ADMINISATRADO00000002016/05/20            T17   0000
0074068501040202002016-05-20120543SPEI ENVIADO                  10000000003029.65MXP0000000000048684NUT 48684 ADMINISTRADOR00000002016/05/20            T17   0000
0074068501040202002016-05-20120542SPEI ENVIADO                  10000000003958.81MXP0000000000048630NUT 48630 ADMINISTADORA00000002016/05/20            T17   0000
0074068501040202002016-05-20120541SPEI ENVIADO                  10000000001906.18MXP0000000000048626NUT 48626 GPO GARCIA MO00000002016/05/20            T17   0000
0074068501040202002016-05-20120540SPEI ENVIADO                  10000000003178.37MXP0000000000048625NUT 48625 GPO GACIA MON00000002016/05/20            T17   0000
0074068501040202002016-05-20120539SPEI ENVIADO                  10000000007308.00MXP0000000000048689NUT 48689 ECO MANAGEMEN00000002016/05/20            T17   0000
0074068501040202002016-05-20120538SPEI ENVIADO                  10000000007308.00MXP0000000000048690NUT 48690 ECO MANAGEMEN00000002016/05/20            T17   0000
0074068501040202002016-05-20120537SPEI ENVIADO                  10000000007308.00MXP0000000000048688NUT 48688 ECO MANAGEMEN00000002016/05/20            T17   0000
0074068501040202002016-05-20120536SPEI ENVIADO                  10000000013050.00MXP0000000000045386NUT 45386 SOLUCIONES IN00000002016/05/20            T17   0000
0074068501040202002016-05-20120535SPEI ENVIADO                  10000000008829.08MXP0000000000045616NUT 45616 COMERCIALIZZA00000002016/05/20            T17   0000
0074068501040202002016-05-20120532SPEI ENVIADO                  10000000008329.73MXP0000000000046641NUT 46641 COMERCIALIZAD00000002016/05/20            T17   0000
0074068501040202002016-05-20120531SPEI ENVIADO                  10000000000510.28MXP0000000000047246NUT 47246 SMART FINAL D00000002016/05/20            T17   0000
0074068501040202002016-05-20120530SPEI ENVIADO                  10000000001022.20MXP0000000000047248NUT 47248 SMART FINAL D00000002016/05/20            T17   0000
0074068501040202002016-05-20120529SPEI ENVIADO                  10000000001759.40MXP0000000000047580NUT 47580 SMART FINAL  00000002016/05/20            T17   0000
0074068501040202002016-05-20120528SPEI ENVIADO                  10000000000532.30MXP0000000000047247NUT 47247 SMART FINAL D00000002016/05/20            T17   0000
0074068501040202002016-05-20120526SPEI ENVIADO                  10000000034907.42MXP0000000000045617NUT 45617 CLIPS MART  M00000002016/05/20            T17   0000
0074068501040202002016-05-20120524SPEI ENVIADO                  10000000004431.20MXP0000000000046585NUT 46585 JOSE  CARBALL00000002016/05/20            T17   0000
0074068501040202002016-05-20120523SPEI ENVIADO                  10000000001751.60MXP0000000000046977NUT 46977 JOSE E GUZAMN00000002016/05/20            T17   0000
0074068501040202002016-05-20120522SPEI ENVIADO                  10000000001751.60MXP0000000000046978NUT 46978 JOSE E GUZAMN00000002016/05/20            T17   0000
0074068501040202002016-05-20120521SPEI ENVIADO                  10000000005323.01MXP0000000000047102NUT 47102 PROVEEDORA DE00000002016/05/20            T17   0000
0074068501040202002016-05-20120520SPEI ENVIADO                  10000000013313.56MXP0000000000046626NUT 46626 JULIA MALABAR00000002016/05/20            T17   0000
0074068501040202002016-05-20120518SPEI ENVIADO                  10000000009437.35MXP0000000000046708NUT 46708 JULIA MALABAR00000002016/05/20            T17   0000
0074068501040202002016-05-20119447SPEI ENVIADO                  10000000001407.70MXP0000000000049200NUT 49200 OLGUIN MTZ AL00000002016/05/20            T17   0000
0074068501040202002016-05-20119446SPEI ENVIADO                  10000000000449.94MXP0000000000049211NUT 49211 ZACARIAS CORO00000002016/05/20            T17   0000
0074068501040202002016-05-20119445SPEI ENVIADO                  10000000001101.78MXP0000000000049208NUT 49208 ZACARIAS CORO00000002016/05/20            T17   0000
0074068501040202002016-05-20119444SPEI ENVIADO                  10000000016525.17MXP0000000000049195NUT 49195 AHORRO DE TRA00000002016/05/20            T17   0000
0074068501040202002016-05-20119443SPEI ENVIADO                  10000000000139.94MXP0000000000049198NUT 49198 ROCIO VEORNIC00000002016/05/20            T17   0000
0074068501040202002016-05-20119442SPEI ENVIADO                  10000000011190.00MXP0000000000049189NUT 49189 GARCIA GARCIA00000002016/05/20            T17   0000
0074068501040202002016-05-20119441SPEI ENVIADO                  10000000002000.00MXP0000000000049190NUT 49190 BRIZ DORAME K00000002016/05/20            T17   0000
0074068501040202002016-05-20119439SPEI ENVIADO                  10000000148249.38MXP0000000000049191NUT 49191 SERV  FINANCI00000002016/05/20            T17   0000
0074068501040202002016-05-20119438SPEI ENVIADO                  10000000028475.29MXP0000000000049193NUT 49193 AHORRO DE TRA00000002016/05/20            T17   0000
0074068501040202002016-05-20119437SPEI ENVIADO                  10000000090825.00MXP0000000000049194NUT 49194 SISTEMA  DE H00000002016/05/20            T17   0000
0074068501040202002016-05-20119436SPEI ENVIADO                  10000000001491.52MXP0000000000049199NUT 49199 MERCEDES ALAR00000002016/05/20            T17   0000
0074068501040202002016-05-20055969SPEI ENVIADO                  10000000019383.42MXP0000000002005168TRASP NOM PENSIONES ALI00000002016/05/20            T17   0000
0074068501040202002016-05-20050853SPEI ENVIADO                  10000000204332.12MXP0000000002005168TRASP NOM 2A COMP MAYO100000002016/05/20            T17   0000
0074068501040202002016-05-20049638SPEI ENVIADO                  10000000270234.53MXP0000000002005168TRASP NOM 2A COMP MAYO100000002016/05/20            T17   0000
0074068501040202002016-05-20000258CARGO CHEQUE                  10000000099080.26MXP000000000C000000258ECTIVO              00000002016/05/20            C03   0000
0074068501040202002016-05-20000245CARGO CHEQUE                  10000000010258.36MXP000000000C000000245 DE DEPOSITO:MICN69000000002016/05/20            C03   0000
0074068501040202002016-05-20000238CARGO CHEQUE                  10000000001770.94MXP000000000C000000238 DE DEPOSITO:OOFN84000000002016/05/20            C03   0000
0074068501040202002016-05-20000235CARGO CHEQUE                  10000000000850.96MXP000000000C000000235 DE DEPOSITO:OUMA72100000002016/05/20            C03   0000
0074068501040202002016-05-20000217CARGO CHEQUE                  10000000011152.68MXP000000000C000000217ECTIVO              00000002016/05/20            C03   0000
0074068501040202002016-05-20000209CARGO CHEQUE                  10000000001270.50MXP000000000C000000209 DE DEPOSITO:BEGF76100000002016/05/20            C03   0000
0074068501040202002016-05-20000193CARGO CHEQUE                  10000000001407.70MXP000000000C000000193 DE DEPOSITO:OUMA72100000002016/05/20            C03   0000
0074068501040202002016-05-20000154CARGO CHEQUE                  10000000005243.62MXP000000000C000000154 DE DEPOSITO:VACC93000000002016/05/20            C03   0000
0074068501040202002016-05-20000145DEPOSITO EFECTIVO/CHEQUE      00000000000212.00MXP0000000000001451                       00000002016/05/20            C02   0000
0074068501040202002016-05-20000145DEPOSITO EFECTIVO/CHEQUE      00000000000757.00MXP00000000000014500BOLETIN               00000002016/05/20            C02   0000
0074068501040202002016-05-20000144DEPOSITO EFECTIVO/CHEQUE      00000000000333.00MXP0000000000001449                       00000002016/05/20            C02   0000
0074068501040202002016-05-20000137DEPOSITO EFECTIVO/CHEQUE      00000000010038.70MXP0000000000001378                       00000002016/05/20            C02   0000
0074068501040202002016-05-20000000DEPOSITO DE INVERSION         00000001063407.68MXP000000000                              00000002016/05/20            I01   0000
0074068501040202002016-05-20000000DEPOSITO DE INVERSION         00000069138465.92MXP000000000                              00000002016/05/20            I01   0000
0074068501040202002016-05-20000000PAGO A TERCEROS MISMA PLAZA CW10000000000198.00MXP000000000NUT 48840 ENERGETICOS EN RED P00000002016/05/20            W01   0000
0074068501040202002016-05-20000000CARGO TRASPASO MISMA PLAZA CW 10000000001122.37MXP000000000TRASP NOM PENSIONES ALIMENT   00000002016/05/20            W41   0000
0074068501040202002016-05-20000000PAGO A TERCEROS MISMA PLAZA CW10000000001491.52MXP000000000NUT 49197 MARICELA DURON PEN A00000002016/05/20            W01   0000
0074068501040202002016-05-20000000PAGO A TERCEROS MISMA PLAZA CW10000000002170.00MXP000000000NUT 48746 AUTOMOTORES FEONTERA00000002016/05/20            W01   0000
0074068501040202002016-05-20000000PAGO A TERCEROS MISMA PLAZA CW10000000004486.15MXP000000000NUT 48837 ENERGETICOS EN RED  00000002016/05/20            W01   0000
0074068501040202002016-05-20000000CARGO TRASPASO MISMA PLAZA CW 10000000008098.49MXP000000000TRASP PAGO PENSIONES ALIMENTIC00000002016/05/20            W41   0000
0074068501040202002016-05-20000000PAGO A TERCEROS MISMA PLAZA CW10000000012634.72MXP000000000NUT 46512 SOLUCIONES  MITA MAT00000002016/05/20            W01   0000
0074068501040202002016-05-20000000PAGO A TERCEROS MISMA PLAZA CW10000000014500.00MXP000000000NUT 45255 CONSTRUCCION ELECTRO00000002016/05/20            W01   0000
0074068501040202002016-05-20000000PAGO A TERCEROS MISMA PLAZA CW10000000015486.00MXP000000000NUT 46621 IMPRSOS Y PALELERIA 00000002016/05/20            W01   0000
0074068501040202002016-05-20000000PAGO A TERCEROS MISMA PLAZA CW10000000019461.75MXP000000000NUT 43282 CORPORATIVO SERV Y P00000002016/05/20            W01   0000
0074068501040202002016-05-20000000PAGO A TERCEROS MISMA PLAZA CW10000000023380.44MXP000000000NUT 48422 CESP ENSENADA  JUZDO00000002016/05/20            W01   0000
0074068501040202002016-05-20000000PAGO A TERCEROS MISMA PLAZA CW10000000030684.32MXP000000000NUT 46513 SOLUCINES MITA MATER00000002016/05/20            W01   0000
0074068501040202002016-05-20000000PAGO A TERCEROS MISMA PLAZA CW10000000036240.72MXP000000000NUT 46623 SKIT INDUSTRIAL  MAT00000002016/05/20            W01   0000
0074068501040202002016-05-20000000PAGO A TERCEROS MISMA PLAZA CW10000000036767.27MXP000000000NUT 46653 BAJANET ADQ 4 CODIFI00000002016/05/20            W01   0000
0074068501040202002016-05-20000000PAGO A TERCEROS MISMA PLAZA CW10000000044157.61MXP000000000NUT 49192 AHORO DE TRABAJADORE00000002016/05/20            W01   0000
0074068501040202002016-05-20000000PAGO A TERCEROS MISMA PLAZA CW10000000052343.84MXP000000000NUT 46511 SOLUCIONES MITA SA D00000002016/05/20            W01   0000
0074068501040202002016-05-20000000PAGO A TERCEROS MISMA PLAZA CW10000000068588.48MXP000000000NUT 46510 SOLUCIONES MITA MATE00000002016/05/20            W01   0000
0074068501040202002016-05-20000000PAGO A TERCEROS MISMA PLAZA CW10000000096239.00MXP000000000NUT 47985 AYUNTAMIENTO DE MEXI00000002016/05/20            W01   0000
0074068501040202002016-05-20000000PAGO A TERCEROS MISMA PLAZA CW10000000123770.06MXP000000000NUT 49128 TELEFONOS DEL NOROES00000002016/05/20            W01   0000
0074068501040202002016-05-20000000PAGO A TERCEROS MISMA PLAZA CW10000000157414.32MXP000000000NUT 46499 COMPUPROVEEDORES MAT00000002016/05/20            W01   0000
0074068501040202002016-05-20000000CARGO TRASPASO MISMA PLAZA CW 10000000212788.68MXP000000000TRASP NOM 2A COMP MAYO16      00000002016/05/20            W41   0000
0074068501040202002016-05-20000000PAGO A TERCEROS MISMA PLAZA CW10000000236121.48MXP000000000NUT 46497 COMPUPROVEEDORES MAT00000002016/05/20            W01   0000
0074068501040202002016-05-20000000PAGO A TERCEROS MISMA PLAZA CW10000000356056.20MXP000000000NUT 46498 COMPUPROVEEDORES MAT00000002016/05/20            W01   0000
0074068501040202002016-05-20000000APERTURA DE INVERSION         10000001063407.68MXP000000000                              00000002016/05/20            I02   0000
0074068501040202002016-05-20000000CARGO TRASPASO MISMA PLAZA CW 10000007661847.23MXP000000000TRASP NOM 2A COMP MAYO16      00000002016/05/20            W41   0000
0074068501040202002016-05-20000000APERTURA DE INVERSION         10000058449939.33MXP000000000                              00000002016/05/20            I02   0000
0074068501040202002016-05-20000000SALDO ULTIMA TRANS            20000000728494.52MXP000000000                              00000002016/05/20                  0000
0074068501040202002016-05-192841891343904 DEM. EFECTIVO         00000000001887.00MXP000000000CIVILESTIJUANA3               00000002016/05/19            C72   0000
0074068501040202002016-05-191540481343904 DEM. EFECTIVO         00000000000560.00MXP000000000CIVILESENSENADA4              00000002016/05/19            C72   0000
0074068501040202002016-05-190964631343904 DEM. EFECTIVO         00000000003239.00MXP000000000CIVILESMEXICALI29             00000002016/05/19            C72   0000
0074068501040202002016-05-19000253CARGO CHEQUE                  10000000002000.00MXP000000000C000000253ECTIVO              00000002016/05/19            C03   0000
0074068501040202002016-05-19000252CARGO CHEQUE                  10000000001200.00MXP000000000C000000252ECTIVO              00000002016/05/19            C03   0000
0074068501040202002016-05-19000239CARGO CHEQUE                  10000000001535.53MXP000000000C000000239 DE DEPOSITO:GEB460300000002016/05/19            C03   0000
0074068501040202002016-05-19000236CARGO CHEQUE                  10000000000576.71MXP000000000C000000236 DE DEPOSITO:GEB460300000002016/05/19            C03   0000
0074068501040202002016-05-19000226CARGO CHEQUE                  10000000002800.00MXP000000000C000000226ECTIVO              00000002016/05/19            C03   0000
0074068501040202002016-05-19000199CARGO CHEQUE                  10000000217662.58MXP000000000C000000199 DE DEPOSITO:SUT380900000002016/05/19            C03   0000
0074068501040202002016-05-19000135DEPOSITO EFECTIVO/CHEQUE      00000000000227.00MXP0000000000001353                       00000002016/05/19            C02   0000
0074068501040202002016-05-19000135DEPOSITO EFECTIVO/CHEQUE      00000000000212.00MXP00000000000013590BOLETIN               00000002016/05/19            C02   0000
0074068501040202002016-05-19000131CARGO CHEQUE                  10000000220140.00MXP000000000C000000131 DE DEPOSITO:SUT380900000002016/05/19            C03   0000
0074068501040202002016-05-19000130CARGO CHEQUE                  10000000220022.66MXP000000000C000000130 DE DEPOSITO:SUT380900000002016/05/19            C03   0000
0074068501040202002016-05-19000000DEPOSITO DE INVERSION         00000034869061.29MXP000000000                              00000002016/05/19            I01   0000
0074068501040202002016-05-19000000DEPOSITO DE INVERSION         00000001063301.94MXP000000000                              00000002016/05/19            I01   0000
0074068501040202002016-05-19000000DEPOSITO DE INVERSION         00000034262529.88MXP000000000                              00000002016/05/19            I01   0000
0074068501040202002016-05-19000000PAGO A TERCEROS MISMA PLAZA CW10000000000600.00MXP000000000NUT 49072 CUADROS CORDOVA MARI00000002016/05/19            W01   0000
0074068501040202002016-05-19000000PAGO A TERCEROS MISMA PLAZA CW10000000000800.00MXP000000000NUT 49076 MORALES DIAZ XOCHITL00000002016/05/19            W01   0000
0074068501040202002016-05-19000000PAGO A TERCEROS MISMA PLAZA CW10000000001193.64MXP000000000NUT 49117 ARCE LOPEZ OLIVERIO 00000002016/05/19            W01   0000
0074068501040202002016-05-19000000PAGO A TERCEROS MISMA PLAZA CW10000000002860.84MXP000000000NUT 49097 KULJACHA LERMA ELSA 00000002016/05/19            W01   0000
0074068501040202002016-05-19000000PAGO A TERCEROS MISMA PLAZA CW10000000002882.37MXP000000000NUT 48801 MORENO BERNAL SALVAD00000002016/05/19            W01   0000
0074068501040202002016-05-19000000PAGO A TERCEROS MISMA PLAZA CW10000000003485.45MXP000000000NUT 49149 CEBREROS SAMANIEGO J00000002016/05/19            W01   0000
0074068501040202002016-05-19000000PAGO A TERCEROS MISMA PLAZA CW10000000004602.97MXP000000000NUT 48694 MUNOZ BELTRAN VICTOR00000002016/05/19            W01   0000
0074068501040202002016-05-19000000APERTURA DE INVERSION         10000001063301.94MXP000000000                              00000002016/05/19            I02   0000
0074068501040202002016-05-19000000APERTURA DE INVERSION         10000069131591.17MXP000000000                              00000002016/05/19            I02   0000
0074068501040202002016-05-19000000SALDO ULTIMA TRANS            20000000494332.23MXP000000000                              00000002016/05/19                  0000
0074068501040202002016-05-188472911343904 DEM. EFECTIVO         00000000002417.00MXP000000000CIVILESTIJUANA3               00000002016/05/18            C72   0000
0074068501040202002016-05-187185691343904 DEM. EFECTIVO         00000000002482.00MXP000000000CIVILESENSENADA4              00000002016/05/18            C72   0000
0074068501040202002016-05-186452101343904 DEM. EFECTIVO         00000000003360.00MXP000000000CIVILESMEXICALI29             00000002016/05/18            C72   0000
0074068501040202002016-05-18142256SPEI RECIBIDO    1476083      00000034259123.00MXP000000000SUBSIDIO                      00000002016/05/18            T20   0000
0074068501040202002016-05-18095723SPEI ENVIADO                  10000000090288.98MXP0000000000048874NUT 48874 SINDICATO SEC00000002016/05/18            T17   0000
0074068501040202002016-05-18095722SPEI ENVIADO                  10000000107540.25MXP0000000000047888NUT 47888 SINDICATO SEC00000002016/05/18            T17   0000
0074068501040202002016-05-18093674SPEI ENVIADO                  10000000002834.00MXP0000000000048865NUT 48865 CESP MEXICALI00000002016/05/18            T17   0000
0074068501040202002016-05-18093673SPEI ENVIADO                  10000000001326.00MXP0000000000048864NUT 48864 CESP MEXICAI 00000002016/05/18            T17   0000
0074068501040202002016-05-18093672SPEI ENVIADO                  10000000063760.00MXP0000000000048853NUT 48853 CESP MEXICALI00000002016/05/18            T17   0000
0074068501040202002016-05-18000244CARGO CHEQUE                  10000000005000.00MXP000000000C000000244 DE DEPOSITO:MAAF79000000002016/05/18            C03   0000
0074068501040202002016-05-18000234CARGO CHEQUE                  10000000003000.00MXP000000000C000000234 DE DEPOSITO:GEB460300000002016/05/18            C03   0000
0074068501040202002016-05-18000222CARGO CHEQUE                  10000000004000.00MXP000000000C000000222 DE DEPOSITO:GEB460300000002016/05/18            C03   0000
0074068501040202002016-05-18000211CARGO CHEQUE                  10000000008009.76MXP000000000C000000211ECTIVO              00000002016/05/18            C03   0000
0074068501040202002016-05-18000208CARGO CHEQUE                  10000000003849.00MXP000000000C000000208ECTIVO              00000002016/05/18            C03   0000
0074068501040202002016-05-18000177CARGO CHEQUE                  10000000001902.29MXP000000000C000000177ECTIVO              00000002016/05/18            C03   0000
0074068501040202002016-05-18000175CARGO CHEQUE                  10000000001844.04MXP000000000C000000175ECTIVO              00000002016/05/18            C03   0000
0074068501040202002016-05-18000174CARGO CHEQUE                  10000000009940.34MXP000000000C000000174 DE DEPOSITO:JARA78000000002016/05/18            C03   0000
0074068501040202002016-05-18000148CARGO CHEQUE                  10000000005500.00MXP000000000C000000148 DE DEPOSITO:GEB460300000002016/05/18            C03   0000
0074068501040202002016-05-18000133DEPOSITO EFECTIVO/CHEQUE      00000000000212.00MXP00000000000013340BOLETIN               00000002016/05/18            C02   0000
0074068501040202002016-05-18000129DEPOSITO EFECTIVO/CHEQUE      00000000001000.00MXP0000000000001296                       00000002016/05/18            C02   0000
0074068501040202002016-05-18000000DEPOSITO DE INVERSION         00000035819568.60MXP000000000                              00000002016/05/18            I01   0000
0074068501040202002016-05-18000000DEPOSITO CHEQUE BANCOMER      00000000005500.00MXP000000000                              00000002016/05/18            M97   0000
0074068501040202002016-05-18000000DEPOSITO DE INVERSION         00000001063196.21MXP000000000                              00000002016/05/18            I01   0000
0074068501040202002016-05-18000000PAGO A TERCEROS MISMA PLAZA CW10000000000385.37MXP000000000NUT 48844 CESP ENSENADA  PAGO 00000002016/05/18            W01   0000
0074068501040202002016-05-18000000PAGO A TERCEROS MISMA PLAZA CW10000000000552.94MXP000000000NUT 49068 BELTRAN ALMADA SONIA00000002016/05/18            W01   0000
0074068501040202002016-05-18000000PAGO A TERCEROS MISMA PLAZA CW10000000000600.00MXP000000000NUT 48974 LARA VILLAREAL JULIO00000002016/05/18            W01   0000
0074068501040202002016-05-18000000PAGO A TERCEROS MISMA PLAZA CW10000000000600.00MXP000000000NUT 48915 LOPEZ GARCIA ERICK O00000002016/05/18            W01   0000
0074068501040202002016-05-18000000PAGO A TERCEROS MISMA PLAZA CW10000000000600.00MXP000000000NUT 49021 LOPEZ ROMAN EVANGELI00000002016/05/18            W01   0000
0074068501040202002016-05-18000000PAGO A TERCEROS MISMA PLAZA CW10000000000601.00MXP000000000NUT 49032 SILVA RAMIREZ JESUS 00000002016/05/18            W01   0000
0074068501040202002016-05-18000000PAGO A TERCEROS MISMA PLAZA CW10000000000768.50MXP000000000NUT 49069 ESPINOZA OROZCO J JE00000002016/05/18            W01   0000
0074068501040202002016-05-18000000PAGO A TERCEROS MISMA PLAZA CW10000000000800.00MXP000000000NUT 48972 VILLARREAL ONTIVEROS00000002016/05/18            W01   0000
0074068501040202002016-05-18000000PAGO A TERCEROS MISMA PLAZA CW10000000001110.50MXP000000000NUT 49073 COTA DE ANDA ALFONSO00000002016/05/18            W01   0000
0074068501040202002016-05-18000000PAGO A TERCEROS MISMA PLAZA CW10000000001238.11MXP000000000NUT 48970 PEREZ CATANEDA JORGE00000002016/05/18            W01   0000
0074068501040202002016-05-18000000PAGO A TERCEROS MISMA PLAZA CW10000000002500.00MXP000000000NUT 48513 PALAFOX MARTINEZ ALV00000002016/05/18            W01   0000
0074068501040202002016-05-18000000PAGO A TERCEROS MISMA PLAZA CW10000000002679.00MXP000000000NUT 49070 LOPEZ RODATE MARIA E00000002016/05/18            W01   0000
0074068501040202002016-05-18000000PAGO A TERCEROS MISMA PLAZA CW10000000005021.20MXP000000000NUT 48911 MORENO BERNAL SALADO00000002016/05/18            W01   0000
0074068501040202002016-05-18000000PAGO A TERCEROS MISMA PLAZA CW10000000005627.32MXP000000000NUT 48583 MORENO BERNAL SALVAD00000002016/05/18            W01   0000
0074068501040202002016-05-18000000PAGO A TERCEROS MISMA PLAZA CW10000000008200.00MXP000000000NUT 48870 SAUCEDA ESQUERA JORG00000002016/05/18            W01   0000
0074068501040202002016-05-18000000PAGO A TERCEROS MISMA PLAZA CW10000000019283.12MXP000000000NUT 48812 ISSSTECALI RETENCION00000002016/05/18            W01   0000
0074068501040202002016-05-18000000PAGO A TERCEROS MISMA PLAZA CW10000000029434.51MXP000000000NUT 48810 ISSSTECALI  NOM DEL 00000002016/05/18            W01   0000
0074068501040202002016-05-18000000PAGO A TERCEROS MISMA PLAZA CW10000000031170.00MXP000000000NUT 48841  PAGO DE CFE  JUZDO 00000002016/05/18            W01   0000
0074068501040202002016-05-18000000PAGO A TERCEROS MISMA PLAZA CW10000000036901.00MXP000000000NUT 48929 CFE SERV ENEGIA ELEC00000002016/05/18            W01   0000
0074068501040202002016-05-18000000PAGO A TERCEROS MISMA PLAZA CW10000000141108.00MXP000000000NUT 48064 CFE POR EL MES DE AB00000002016/05/18            W01   0000
0074068501040202002016-05-18000000PAGO A TERCEROS MISMA PLAZA CW10000000149728.05MXP000000000NUT 48805 ISSSTECALI RETENCION00000002016/05/18            W01   0000
0074068501040202002016-05-18000000PAGO A TERCEROS MISMA PLAZA CW10000000228551.07MXP000000000NUT 48788 ISSSTECALI  NOM DEL 00000002016/05/18            W01   0000
0074068501040202002016-05-18000000APERTURA DE INVERSION         10000001063196.21MXP000000000                              00000002016/05/18            I02   0000
0074068501040202002016-05-18000000APERTURA DE INVERSION         10000034259123.00MXP000000000                              00000002016/05/18            I02   0000
0074068501040202002016-05-18000000APERTURA DE INVERSION         10000034865594.10MXP000000000                              00000002016/05/18            I02   0000
0074068501040202002016-05-18000000SALDO ULTIMA TRANS            20000001170569.98MXP000000000                              00000002016/05/18                  0000
0074068501040202002016-05-179483931343904 DEM. EFECTIVO         00000000001847.00MXP000000000CIVILESTIJUANA3               00000002016/05/17            C72   0000
0074068501040202002016-05-171828691343904 DEM. EFECTIVO         00000000000681.00MXP000000000CIVILESENSENADA4              00000002016/05/17            C72   0000
0074068501040202002016-05-170940991343904 DEM. EFECTIVO         00000000002664.00MXP000000000CIVILESMEXICALI29             00000002016/05/17            C72   0000
0074068501040202002016-05-17000243CARGO CHEQUE                  10000000005719.62MXP000000000C000000243                    00000002016/05/17            C03   0000
0074068501040202002016-05-17000241CARGO CHEQUE                  10000000017000.00MXP000000000C000000241ECTIVO              00000002016/05/17            C03   0000
0074068501040202002016-05-17000240CARGO CHEQUE                  10000000013671.05MXP000000000C000000240 DE DEPOSITO:PEPE73000000002016/05/17            C03   0000
0074068501040202002016-05-17000225CARGO CHEQUE                  10000000057572.42MXP000000000C000000225 DE DEPOSITO:ISS710100000002016/05/17            C03   0000
0074068501040202002016-05-17000218CARGO CHEQUE                  10000000022971.35MXP000000000C000000218 DE DEPOSITO:AASC83000000002016/05/17            C03   0000
0074068501040202002016-05-17000212CARGO CHEQUE                  10000000029418.57MXP000000000C000000212 DE DEPOSITO:ROAR54000000002016/05/17            C03   0000
0074068501040202002016-05-17000203CARGO CHEQUE                  10000000001500.00MXP000000000C000000203 DE DEPOSITO:GEB460300000002016/05/17            C03   0000
0074068501040202002016-05-17000200CARGO CHEQUE                  10000000013796.74MXP000000000C000000200 DE DEPOSITO:GONK81000000002016/05/17            C03   0000
0074068501040202002016-05-17000194CARGO CHEQUE                  10000000001280.68MXP000000000C000000194 DE DEPOSITO:OOFN84000000002016/05/17            C03   0000
0074068501040202002016-05-17000155CARGO CHEQUE                  10000000002368.09MXP000000000C000000155ECTIVO              00000002016/05/17            C03   0000
0074068501040202002016-05-17000153CARGO CHEQUE                  10000000007761.15MXP000000000C000000153ECTIVO              00000002016/05/17            C03   0000
0074068501040202002016-05-17000128DEPOSITO EFECTIVO/CHEQUE      00000000000454.00MXP00000000000012850BOLETIN               00000002016/05/17            C02   0000
0074068501040202002016-05-17000128DEPOSITO EFECTIVO/CHEQUE      00000000000666.00MXP0000000000001287                       00000002016/05/17            C02   0000
0074068501040202002016-05-17000126DEPOSITO EFECTIVO/CHEQUE      00000000000560.00MXP0000000000001260                       00000002016/05/17            C02   0000
0074068501040202002016-05-17000106CARGO CHEQUE                  10000000000600.00MXP000000000C000000106ECTIVO              00000002016/05/17            C03   0000
0074068501040202002016-05-17000000DEPOSITO DE INVERSION         00000001063090.49MXP000000000                              00000002016/05/17            I01   0000
0074068501040202002016-05-17000000DEPOSITO DE INVERSION         00000035874456.16MXP000000000                              00000002016/05/17            I01   0000
0074068501040202002016-05-17000000PAGO A TERCEROS MISMA PLAZA CW10000000000600.00MXP000000000NUT 48702 LOPEZ GARCIA ERICK O00000002016/05/17            W01   0000
0074068501040202002016-05-17000000PAGO A TERCEROS MISMA PLAZA CW10000000000600.00MXP000000000NUT 48869 LOPEZ ROMAN EVANGELI00000002016/05/17            W01   0000
0074068501040202002016-05-17000000PAGO A TERCEROS MISMA PLAZA CW10000000000956.33MXP000000000NUT 48887 VAZQUEZ FDEZ VICTOR 00000002016/05/17            W01   0000
0074068501040202002016-05-17000000PAGO A TERCEROS MISMA PLAZA CW10000000001238.00MXP000000000NUT 48930 BRIZUELA GAYTAN GERA00000002016/05/17            W01   0000
0074068501040202002016-05-17000000PAGO A TERCEROS MISMA PLAZA CW10000000001405.68MXP000000000NUT 48876 RENTERIA IBARRA MARI00000002016/05/17            W01   0000
0074068501040202002016-05-17000000PAGO A TERCEROS MISMA PLAZA CW10000000001418.29MXP000000000NUT 48758 COTA DE ANDA ALFONSO00000002016/05/17            W01   0000
0074068501040202002016-05-17000000PAGO A TERCEROS MISMA PLAZA CW10000000001900.00MXP000000000NUT 48901 MORALES LOPEZ CESAR 00000002016/05/17            W01   0000
0074068501040202002016-05-17000000PAGO A TERCEROS MISMA PLAZA CW10000000002532.70MXP000000000NUT 48946 HERRERA ESQUIVEL FEL00000002016/05/17            W01   0000
0074068501040202002016-05-17000000PAGO A TERCEROS MISMA PLAZA CW10000000002893.09MXP000000000NUT 48524 MUNOZ BELTRAN VICTOR00000002016/05/17            W01   0000
0074068501040202002016-05-17000000PAGO A TERCEROS MISMA PLAZA CW10000000003014.52MXP000000000NUT 48123 MTROMARCOS PEREZ NUN00000002016/05/17            W01   0000
0074068501040202002016-05-17000000PAGO A TERCEROS MISMA PLAZA CW10000000003247.32MXP000000000NUT 48570 MORENO BERNAL SALVAD00000002016/05/17            W01   0000
0074068501040202002016-05-17000000CARGO TRASPASO MISMA PLAZA CW 10000000028828.62MXP000000000PAGO NOM CHS NO 46 RECIBOS    00000002016/05/17            W41   0000
0074068501040202002016-05-17000000CARGO TRASPASO MISMA PLAZA CW 10000000029620.64MXP000000000PAGO NOM ELECT NO 46 RECIBOS  00000002016/05/17            W41   0000
0074068501040202002016-05-17000000APERTURA DE INVERSION         10000001063090.49MXP000000000                              00000002016/05/17            I02   0000
0074068501040202002016-05-17000000APERTURA DE INVERSION         10000035816006.90MXP000000000                              00000002016/05/17            I02   0000
0074068501040202002016-05-17000000SALDO ULTIMA TRANS            20000001177878.83MXP000000000                              00000002016/05/17                  0000
0074068501040202002016-05-162637091343904 DEM. EFECTIVO         00000000001181.00MXP000000000CIVILESTIJUANA3               00000002016/05/16            C72   0000
0074068501040202002016-05-162598371343904 DEM. EFECTIVO         00000000003239.00MXP000000000CIVILESMEXICALI29             00000002016/05/16            C72   0000
0074068501040202002016-05-162590121343904 DEM. EFECTIVO         00000000000772.00MXP000000000CIVILESENSENADA4              00000002016/05/16            C72   0000
0074068501040202002016-05-16000214CARGO CHEQUE                  10000000029418.57MXP000000000C000000214ECTIVO              00000002016/05/14            C03   0000
0074068501040202002016-05-16000207CARGO CHEQUE                  10000000001270.00MXP000000000C000000207 DE DEPOSITO:VASF83100000002016/05/16            C03   0000
0074068501040202002016-05-16000147CARGO CHEQUE                  10000000003014.24MXP000000000C000000147 DE DEPOSITO:SUT951200000002016/05/16            C03   0000
0074068501040202002016-05-16000125DEPOSITO EFECTIVO/CHEQUE      00000000001000.00MXP0000000000001252                       00000002016/05/16            C02   0000
0074068501040202002016-05-16000000DEPOSITO DE INVERSION         00000001062984.78MXP000000000                              00000002016/05/16            I01   0000
0074068501040202002016-05-16000000DEPOSITO DE INVERSION         00000036020889.00MXP000000000                              00000002016/05/16            I01   0000
0074068501040202002016-05-16000000APERTURA DE INVERSION         10000001062984.78MXP000000000                              00000002016/05/16            I02   0000
0074068501040202002016-05-16000000APERTURA DE INVERSION         10000035870889.00MXP000000000                              00000002016/05/16            I02   0000
0074068501040202002016-05-16000000SALDO ULTIMA TRANS            20000001364472.43MXP000000000                              00000002016/05/16                  0000
0074068501040202002016-05-139976141343904 DEM. EFECTIVO         00000000000969.00MXP000000000CIVILESTIJUANA3               00000002016/05/13            C72   0000
0074068501040202002016-05-138630071343904 DEM. EFECTIVO         00000000001014.00MXP000000000CIVILESMEXICALI29             00000002016/05/13            C72   0000
0074068501040202002016-05-138629631343904 DEM. EFECTIVO         00000000001163.00MXP000000000CIVILESMEXICALI11             00000002016/05/13            C72   0000
0074068501040202002016-05-138622151343904 DEM. EFECTIVO         00000000000666.00MXP000000000CIVILESENSENADA4              00000002016/05/13            C72   0000
0074068501040202002016-05-13248563INTERBANCARIO RECIBIDO        00000000038500.00MXP0000000001478389RET. TERCEROS TRANS    00000002016/05/13            T09   0000
0074068501040202002016-05-13208992SPEI ENVIADO                  10000000001324.94MXP0000000000048790NUT 48790 SALGADO ZARAG00000002016/05/13            T17   0000
0074068501040202002016-05-13208991SPEI ENVIADO                  10000000001926.80MXP0000000000048797NUT 48797 JAHZEEL GABRI00000002016/05/13            T17   0000
0074068501040202002016-05-13208990SPEI ENVIADO                  10000000000856.98MXP0000000000048787NUT 48787 ADRIANA ORTIZ00000002016/05/13            T17   0000
0074068501040202002016-05-13208989SPEI ENVIADO                  10000000001735.00MXP0000000000048785NUT 48785 CRUZ DEL CARM00000002016/05/13            T17   0000
0074068501040202002016-05-13208988SPEI ENVIADO                  10000000000466.70MXP0000000000048777NUT 48777 VIANEY CASAS 00000002016/05/13            T17   0000
0074068501040202002016-05-13208987SPEI ENVIADO                  10000000001063.71MXP0000000000048778MERCEDES ALARCON BARRAZ00000002016/05/13            T17   0000
0074068501040202002016-05-13208986SPEI ENVIADO                  10000000002344.19MXP0000000000048772NUT 48772 ROCIO VERONIC00000002016/05/13            T17   0000
0074068501040202002016-05-13208985SPEI ENVIADO                  10000000001560.52MXP0000000000048773NUT 48773 MICHEL CARMIN00000002016/05/13            T17   0000
0074068501040202002016-05-13206603SPEI ENVIADO                  10000000074830.00MXP0000000000048533NUT 48533 OPERADORA EL 00000002016/05/13            T17   0000
0074068501040202002016-05-13201189SPEI ENVIADO                  10000000001374.45MXP0000000000047875NUT 47875 OPERADORA  TU00000002016/05/13            T17   0000
0074068501040202002016-05-13199258SPEI ENVIADO                  10000000008100.00MXP0000000000048757NUT 48757 OCHOA BRAMBIL00000002016/05/13            T17   0000
0074068501040202002016-05-13199257SPEI ENVIADO                  10000000024885.32MXP0000000000048749NUT 48749 GARCIA GARCIA00000002016/05/13            T17   0000
0074068501040202002016-05-13199255SPEI ENVIADO                  10000000008750.00MXP0000000000048750NUT 48750 BRIZ DORAME K00000002016/05/13            T17   0000
0074068501040202002016-05-13199254SPEI ENVIADO                  10000000221121.66MXP0000000000048751NUT 48751 SERV FINANCIE00000002016/05/13            T17   0000
0074068501040202002016-05-13199253SPEI ENVIADO                  10000000137856.07MXP0000000000048756NUT 48756 AHORRO  TRABA00000002016/05/13            T17   0000
0074068501040202002016-05-13199252SPEI ENVIADO                  10000000196921.00MXP0000000000048753NUT 48753 AHORRO DE TRA00000002016/05/13            T17   0000
0074068501040202002016-05-13199251SPEI ENVIADO                  10000000263775.16MXP0000000000048754NUT 48754 SISTEMA DE AH00000002016/05/13            T17   0000
0074068501040202002016-05-13199250SPEI ENVIADO                  10000000003251.21MXP0000000000048121NUT 48121 SINDICATO SEC00000002016/05/13            T17   0000
0074068501040202002016-05-13163453SPEI ENVIADO                  10000000000527.80MXP0000000000045219NUT 45219 SURTIDORA DE 00000002016/05/13            T17   0000
0074068501040202002016-05-13163452SPEI ENVIADO                  10000000000992.96MXP0000000000044532NUT 44532 JULIA MALABAR00000002016/05/13            T17   0000
0074068501040202002016-05-13163451SPEI ENVIADO                  10000000005220.00MXP0000000000044999NUT 44999  COMERCIALIZA00000002016/05/13            T17   0000
0074068501040202002016-05-13163450SPEI ENVIADO                  10000000001396.87MXP0000000000046132NUT 46132 LUZ LETICIA L00000002016/05/13            T17   0000
0074068501040202002016-05-13163449SPEI ENVIADO                  10000000011504.88MXP0000000000045216NUT 45216 LUZ LETICIA L00000002016/05/13            T17   0000
0074068501040202002016-05-13163448SPEI ENVIADO                  10000000005909.50MXP0000000000045252NUT 45252 LUZ LETICIA P00000002016/05/13            T17   0000
0074068501040202002016-05-13163446SPEI ENVIADO                  10000000000672.80MXP0000000000045770NUT 45770 FCO ESQUER LO00000002016/05/13            T17   0000
0074068501040202002016-05-13163445SPEI ENVIADO                  10000000000672.80MXP0000000000045540NUT 45540 FCOE SQUER LO00000002016/05/13            T17   0000
0074068501040202002016-05-13163444SPEI ENVIADO                  10000000001693.60MXP0000000000045539NUT 45539JOSE E GUZMAN 00000002016/05/13            T17   0000
0074068501040202002016-05-13163443SPEI ENVIADO                  10000000027849.28MXP0000000000045340NUT 45340 IMAGIN FACTOR00000002016/05/13            T17   0000
0074068501040202002016-05-13163442SPEI ENVIADO                  10000000003361.68MXP0000000000045215NUT 45215 COMERCIALIZAD00000002016/05/13            T17   0000
0074068501040202002016-05-13163441SPEI ENVIADO                  10000000070899.20MXP0000000000047107NUT 47107 PROTECCION  I00000002016/05/13            T17   0000
0074068501040202002016-05-13163440SPEI ENVIADO                  10000000076096.00MXP0000000000047106NUT 47106 PROTECCION  I00000002016/05/13            T17   0000
0074068501040202002016-05-13163439SPEI ENVIADO                  10000000017400.00MXP0000000000046618NUT 46618 ELEVADORA OTI00000002016/05/13            T17   0000
0074068501040202002016-05-13163438SPEI ENVIADO                  10000000147244.02MXP0000000000045793NUT 45793 PROVEEDORA PA00000002016/05/13            T17   0000
0074068501040202002016-05-13163437SPEI ENVIADO                  10000000048180.02MXP0000000000045800NUT 45800 PROVEEDROA PA00000002016/05/13            T17   0000
0074068501040202002016-05-13163436SPEI ENVIADO                  10000000118713.30MXP0000000000045797NUT 45797 PROVEEDROA PA00000002016/05/13            T17   0000
0074068501040202002016-05-13162578SPEI ENVIADO                  10000000054689.52MXP0000000000048053NUT 48053 MALEOCA RENTA00000002016/05/13            T17   0000
0074068501040202002016-05-13162577SPEI ENVIADO                  10000000028210.60MXP0000000000048308NUT 48308 GRETA FCA GAR00000002016/05/13            T17   0000
0074068501040202002016-05-13162576SPEI ENVIADO                  10000000032778.30MXP0000000000048377NUT 48377 FDA NORMA LOP00000002016/05/13            T17   0000
0074068501040202002016-05-13162575SPEI ENVIADO                  10000000024406.79MXP0000000000048343NUT 48343 RAMIREZ MAGAN00000002016/05/13            T17   0000
0074068501040202002016-05-13162574SPEI ENVIADO                  10000000031418.40MXP0000000000048307NUT 48307 LUZ ADRIANA P00000002016/05/13            T17   0000
0074068501040202002016-05-13162573SPEI ENVIADO                  10000000051821.65MXP0000000000048271NUT 48271 RENTA MES DEM00000002016/05/13            T17   0000
0074068501040202002016-05-13162572SPEI ENVIADO                  10000000022793.48MXP0000000000048395NUT 48395 OPERADORA DE 00000002016/05/13            T17   0000
0074068501040202002016-05-13162571SPEI ENVIADO                  10000000032888.15MXP0000000000048273NUT 48273 LUIS A GARCIA00000002016/05/13            T17   0000
0074068501040202002016-05-13162570SPEI ENVIADO                  10000000028836.43MXP0000000000048304NUT 48304 JUSTO DUENEZ 00000002016/05/13            T17   0000
0074068501040202002016-05-13162569SPEI ENVIADO                  10000000007192.00MXP0000000000047052NUT 47052 SUM E IBNST  00000002016/05/13            T17   0000
0074068501040202002016-05-13162568SPEI ENVIADO                  10000000007888.00MXP0000000000047895NUT 47895 OLIVIA VILLEL00000002016/05/13            T17   0000
0074068501040202002016-05-13162567SPEI ENVIADO                  10000000006578.70MXP0000000000048241NUT 48241 GASERMEX GASO00000002016/05/13            T17   0000
0074068501040202002016-05-13162566SPEI ENVIADO                  10000000006410.40MXP0000000000048254NUT 48254 GASERMEX GASO00000002016/05/13            T17   0000
0074068501040202002016-05-13162565SPEI ENVIADO                  10000000001386.27MXP0000000000047391NUT 47391 ADMINISTRADOR00000002016/05/13            T17   0000
0074068501040202002016-05-13162564SPEI ENVIADO                  10000000002540.48MXP0000000000047416NUT 47416 ADMINISTRADOR00000002016/05/13            T17   0000
0074068501040202002016-05-13162563SPEI ENVIADO                  10000000005069.02MXP0000000000048261NUT 48261 GPO GARCIA MO00000002016/05/13            T17   0000
0074068501040202002016-05-13162562SPEI ENVIADO                  10000000002017.60MXP0000000000048206NUT 48206 GPO GARCIA MO00000002016/05/13            T17   0000
0074068501040202002016-05-13162561SPEI ENVIADO                  10000000018877.08MXP0000000000048038NUT 48038 ADMINISTRADOR00000002016/05/13            T17   0000
0074068501040202002016-05-13162560SPEI ENVIADO                  10000000001655.30MXP0000000000048263NUT 48263 ADMINISTRADOR00000002016/05/13            T17   0000
0074068501040202002016-05-13162559SPEI ENVIADO                  10000000001153.45MXP0000000000044784NUT 44784 GERARDO GUERR00000002016/05/13            T17   0000
0074068501040202002016-05-13134390FALTANTE DE EFECTIVO          10000000000002.00MXP000000000DEM REF:CIVILESTIJUANA3      900000002016/05/13            C77   0000
0074068501040202002016-05-13093830SPEI ENVIADO                  10000000050470.86MXP0000000001305168CATO 15 REM4 BONO EXC  00000002016/05/13            T17   0000
0074068501040202002016-05-13093109SPEI ENVIADO                  10000000017564.19MXP0000000001305168PENSION ALIM           00000002016/05/13            T17   0000
0074068501040202002016-05-13092535SPEI ENVIADO                  10000000120422.83MXP0000000001305168CATO 15 MAYO           00000002016/05/13            T17   0000
0074068501040202002016-05-13000233CARGO CHEQUE                  10000000012000.00MXP000000000C000000233ECTIVO              00000002016/05/13            C03   0000
0074068501040202002016-05-13000230CARGO CHEQUE                  10000000067683.87MXP000000000C000000230 DE DEPOSITO:CAGC62000000002016/05/13            C03   0000
0074068501040202002016-05-13000229CARGO CHEQUE                  10000000025000.00MXP000000000C000000229ECTIVO              00000002016/05/13            C03   0000
0074068501040202002016-05-13000228CARGO CHEQUE                  10000000022561.29MXP000000000C000000228ECTIVO              00000002016/05/13            C03   0000
0074068501040202002016-05-13000198CARGO CHEQUE                  10000000002283.51MXP000000000C000000198ECTIVO              00000002016/05/13            C03   0000
0074068501040202002016-05-13000195CARGO CHEQUE                  10000000002486.02MXP000000000C000000195ECTIVO              00000002016/05/13            C03   0000
0074068501040202002016-05-13000187CARGO CHEQUE                  10000000002283.51MXP000000000C000000187ECTIVO              00000002016/05/13            C03   0000
0074068501040202002016-05-13000185CARGO CHEQUE                  10000000026451.11MXP000000000C000000185 DE DEPOSITO:MAUF90000000002016/05/13            C03   0000
0074068501040202002016-05-13000178CARGO CHEQUE                  10000000003455.90MXP000000000C000000178ECTIVO              00000002016/05/13            C03   0000
0074068501040202002016-05-13000159CARGO CHEQUE                  10000000001945.21MXP000000000C000000159 DE DEPOSITO:AOFE74000000002016/05/13            C03   0000
0074068501040202002016-05-13000124DEPOSITO EFECTIVO/CHEQUE      00000000000999.00MXP0000000000001243                       00000002016/05/13            C02   0000
0074068501040202002016-05-13000123DEPOSITO EFECTIVO/CHEQUE      00000000000227.00MXP0000000000001238                       00000002016/05/13            C02   0000
0074068501040202002016-05-13000122DEPOSITO EFECTIVO/CHEQUE      00000000000560.00MXP0000000000001227                       00000002016/05/13            C02   0000
0074068501040202002016-05-13000122DEPOSITO EFECTIVO/CHEQUE      00000000000202.50MXP0000000000001225                       00000002016/05/13            C02   0000
0074068501040202002016-05-13000122DEPOSITO EFECTIVO/CHEQUE      00000000000333.00MXP0000000000001226                       00000002016/05/13            C02   0000
0074068501040202002016-05-13000122DEPOSITO EFECTIVO/CHEQUE      00000000000067.50MXP0000000000001223                       00000002016/05/13            C02   0000
0074068501040202002016-05-13000122DEPOSITO EFECTIVO/CHEQUE      00000000000180.00MXP0000000000001224                       00000002016/05/13            C02   0000
0074068501040202002016-05-13000090CARGO CHEQUE                  10000000002870.95MXP000000000C000000090ECTIVO              00000002016/05/13            C03   0000
0074068501040202002016-05-13000000DEPOSITO DE INVERSION         00000001062667.75MXP000000000                              00000002016/05/13            I01   0000
0074068501040202002016-05-13000000DEPOSITO DE INVERSION         00000048665157.26MXP000000000                              00000002016/05/13            I01   0000
0074068501040202002016-05-13000000PAGO A TERCEROS MISMA PLAZA CW10000000000678.00MXP000000000NUT 48177 PLASCENCIA IBARRA MA00000002016/05/13            W01   0000
0074068501040202002016-05-13000000PAGO A TERCEROS MISMA PLAZA CW10000000000713.39MXP000000000NUT 48704 VAZQUEZ FDEZ VICTOR 00000002016/05/13            W01   0000
0074068501040202002016-05-13000000PAGO A TERCEROS MISMA PLAZA CW10000000000724.09MXP000000000NUT 48167 HDEZ GARCIA PEDRO GA00000002016/05/13            W01   0000
0074068501040202002016-05-13000000PAGO A TERCEROS MISMA PLAZA CW10000000000912.14MXP000000000NUT 48687CASTANEDA ALVAREZ JUA00000002016/05/13            W01   0000
0074068501040202002016-05-13000000PAGO A TERCEROS MISMA PLAZA CW10000000000974.40MXP000000000NUT 48129 VISION HOTELERA HOSP00000002016/05/13            W01   0000
0074068501040202002016-05-13000000PAGO A TERCEROS MISMA PLAZA CW10000000001063.71MXP000000000NUT 48775 MARICELA DURON MANRI00000002016/05/13            W01   0000
0074068501040202002016-05-13000000PAGO A TERCEROS MISMA PLAZA CW10000000001203.30MXP000000000NUT 48651 ANGULO ESPINOZA LUCI00000002016/05/13            W01   0000
0074068501040202002016-05-13000000PAGO A TERCEROS MISMA PLAZA CW10000000001325.88MXP000000000NUT 46347 COMPUPROVEEDORES MAT00000002016/05/13            W01   0000
0074068501040202002016-05-13000000PAGO A TERCEROS MISMA PLAZA CW10000000001637.40MXP000000000NUT 48700 MORALES DIAZ XOCHITL00000002016/05/13            W01   0000
0074068501040202002016-05-13000000PAGO A TERCEROS MISMA PLAZA CW10000000001650.00MXP000000000NUT 48185 MOLINA MORALES MARIA00000002016/05/13            W01   0000
0074068501040202002016-05-13000000PAGO A TERCEROS MISMA PLAZA CW10000000001700.00MXP000000000NUT 48425 FDEZ  RUIZ DE CHAVEZ00000002016/05/13            W01   0000
0074068501040202002016-05-13000000PAGO A TERCEROS MISMA PLAZA CW10000000001984.40MXP000000000NUT 47728 FIBRA HOTELERA  HOSP00000002016/05/13            W01   0000
0074068501040202002016-05-13000000PAGO A TERCEROS MISMA PLAZA CW10000000002000.00MXP000000000NUT 48600 VALENCIA MARQUEZ ANA00000002016/05/13            W01   0000
0074068501040202002016-05-13000000PAGO A TERCEROS MISMA PLAZA CW10000000002025.00MXP000000000NUT 48568 AMADOR GUILLEN COLUM00000002016/05/13            W01   0000
0074068501040202002016-05-13000000PAGO A TERCEROS MISMA PLAZA CW10000000002113.38MXP000000000NUT 48671 MORONES PICHARDO JUA00000002016/05/13            W01   0000
0074068501040202002016-05-13000000PAGO A TERCEROS MISMA PLAZA CW10000000002212.64MXP000000000DEL 15 DE MAYO REEMB  GMM     00000002016/05/13            W01   0000
0074068501040202002016-05-13000000PAGO A TERCEROS MISMA PLAZA CW10000000002265.88MXP000000000NUT 48657 CORTEZ PENA HECTOR A00000002016/05/13            W01   0000
0074068501040202002016-05-13000000PAGO A TERCEROS MISMA PLAZA CW10000000002302.80MXP000000000NUT 48383 VISION H OTELERA HOS00000002016/05/13            W01   0000
0074068501040202002016-05-13000000PAGO A TERCEROS MISMA PLAZA CW10000000002345.78MXP000000000NUT 48723 AGRAZ FITCH JORGE A 00000002016/05/13            W01   0000
0074068501040202002016-05-13000000PAGO A TERCEROS MISMA PLAZA CW10000000002382.32MXP000000000NUT 48588 REYNOSO GLZ JESUS GT00000002016/05/13            W01   0000
0074068501040202002016-05-13000000PAGO A TERCEROS MISMA PLAZA CW10000000002512.99MXP000000000NUT 44932 GPO ISOMI REFACC Y A00000002016/05/13            W01   0000
0074068501040202002016-05-13000000PAGO A TERCEROS MISMA PLAZA CW10000000002741.12MXP000000000NUT 48031 HARO HARO MARIA GPE 00000002016/05/13            W01   0000
0074068501040202002016-05-13000000PAGO A TERCEROS MISMA PLAZA CW10000000003161.13MXP000000000NUT 48618 PERDOMO GALELGOS SAR00000002016/05/13            W01   0000
0074068501040202002016-05-13000000PAGO A TERCEROS MISMA PLAZA CW10000000003200.00MXP000000000NUT 48624 MELGOZA ORTEGA RICAR00000002016/05/13            W01   0000
0074068501040202002016-05-13000000PAGO A TERCEROS MISMA PLAZA CW10000000003207.03MXP000000000NUT 48683 ACEVES SALAZAR GERAR00000002016/05/13            W01   0000
0074068501040202002016-05-13000000PAGO A TERCEROS MISMA PLAZA CW10000000003225.00MXP000000000NUT 48609 CUEVAS TAPIA MANUELA00000002016/05/13            W01   0000
0074068501040202002016-05-13000000PAGO A TERCEROS MISMA PLAZA CW10000000003275.32MXP000000000NUT 48580 GTZ DE LA PENA AMALI00000002016/05/13            W01   0000
0074068501040202002016-05-13000000PAGO A TERCEROS MISMA PLAZA CW10000000003356.21MXP000000000NUT 48631 AHUMADA GLZ BERNARDI00000002016/05/13            W01   0000
0074068501040202002016-05-13000000PAGO A TERCEROS MISMA PLAZA CW10000000003372.40MXP000000000NUT 48094 FERRER RDZ RAMIRO GT00000002016/05/13            W01   0000
0074068501040202002016-05-13000000PAGO A TERCEROS MISMA PLAZA CW10000000003420.85MXP000000000NUT 48621 RUBIO DIAZ SANDRA SO00000002016/05/13            W01   0000
0074068501040202002016-05-13000000PAGO A TERCEROS MISMA PLAZA CW10000000003433.61MXP000000000NUT 48558 RIOS CAMACHO OFELIA 00000002016/05/13            W01   0000
0074068501040202002016-05-13000000PAGO A TERCEROS MISMA PLAZA CW10000000003463.89MXP000000000NUT 48557 HERNANDEZ GARCIA PED00000002016/05/13            W01   0000
0074068501040202002016-05-13000000PAGO A TERCEROS MISMA PLAZA CW10000000003475.18MXP000000000NUT 48134 LIRA PEDRIN RODOLFO 00000002016/05/13            W01   0000
0074068501040202002016-05-13000000PAGO A TERCEROS MISMA PLAZA CW10000000003855.99MXP000000000NUT 48158 MORENO BERNAL SALVAD00000002016/05/13            W01   0000
0074068501040202002016-05-13000000PAGO A TERCEROS MISMA PLAZA CW10000000004013.60MXP000000000NUT 44533 SISTEMAX REAFCC Y AC00000002016/05/13            W01   0000
0074068501040202002016-05-13000000PAGO A TERCEROS MISMA PLAZA CW10000000004105.38MXP000000000NUT 48164 MOLINA HDEZ FCO GTOS00000002016/05/13            W01   0000
