0074360701370225812016-02-24059393SPEI ENVIADO                  10000000000000.30MXP0000000001423037OTRO                   00000002016/02/24            T17   0000
0074360701370225812016-02-24038926SPEI ENVIADO                  10000000000000.50MXP0000000000001234SERVICIOS FER          00000002016/02/24            T17   0000
0074360701370225812016-02-24000000PAGO A TERCEROS MISMA PLAZA CW10000000000000.01MXP000000000PRUEBA XALAPA                 00000002016/02/24            W01   0000
0074360701370225812016-02-24000000PAGO A TERCEROS MISMA PLAZA CW10000000000000.01MXP000000000PRUEBA XALAPA                 00000002016/02/24            W01   0000
0074360701370225812016-02-24000000PAGO A TERCEROS MISMA PLAZA CW10000000000000.01MXP000000000TEST                          00000002016/02/24            W01   0000
0074360701370225812016-02-24000000PAGO A TERCEROS MISMA PLAZA CW10000000000000.01MXP000000000CORREO                        00000002016/02/24            W01   0000
0074360701370225812016-02-24000000PAGO A TERCEROS MISMA PLAZA CW10000000000000.01MXP000000000TEST CORREO                   00000002016/02/24            W01   0000
0074360701370225812016-02-24000000DISPERSION                    10000000000000.30MXP000000000OTRO                          00000002016/02/24            T30   0000
0074360701370225812016-02-24000000SALDO ULTIMA TRANS            20000000000036.21MXP000000000                              00000002016/02/24                  0000
0074360701370225812016-02-23000000PAGO A TERCEROS MISMA PLAZA CW10000000000000.01MXP0000000000180061662                    00000002016/02/23            W01   0000
0074360701370225812016-02-23000000PAGO A TERCEROS MISMA PLAZA CW10000000000000.01MXP000000000X                             00000002016/02/23            W01   0000
0074360701370225812016-02-23000000PAGO A TERCEROS MISMA PLAZA CW10000000000000.01MXP0000000000180061662                    00000002016/02/23            W01   0000
0074360701370225812016-02-23000000DISPERSION                    10000000000000.50MXP000000000TEST                          00000002016/02/23            T30   0000
0074360701370225812016-02-23000000DISPERSION                    10000000000001.00MXP000000000TESTT                         00000002016/02/23            T30   0000
0074360701370225812016-02-23000000DISPERSION                    10000000000002.00MXP000000000TEST3                         00000002016/02/23            T30   0000
0074360701370225812016-02-23000000SALDO ULTIMA TRANS            20000000000037.36MXP000000000                              00000002016/02/23                  0000
0074360701370225812016-02-22142120PAGO DE NOMINA                10000000000000.02MXP0000000000000000NOMINTESUB1802APLI1902 00000002016/02/19            T16   0000
0074360701370225812016-02-22092640SPEI ENVIADO                  10000000000001.00MXP0000000000123456TEST                   00000002016/02/22            T17   0000
0074360701370225812016-02-22000000PAGO CUENTA DE TERCERO        00000000000002.00MXP000000000BMOV    1459928065 PARA PRUEBA00000002016/02/22            N06   0000
0074360701370225812016-02-22000000PAGO A TERCEROS MISMA PLAZA CW10000000000000.01MXP000000000XALPA                         00000002016/02/22            W01   0000
0074360701370225812016-02-22000000PAGO A TERCEROS MISMA PLAZA CW10000000000000.01MXP000000000PRUEBA                        00000002016/02/22            W01   0000
0074360701370225812016-02-22000000PAGO DE NOMINA                10000000000000.05MXP000000000BBVA BANCOMER PRODUCTOS DE BAN00000002016/02/21            R01   0000
0074360701370225812016-02-22000000PAGO DE NOMINA                10000000000000.10MXP000000000BBVA BANCOMER PROD DE BCA ELEC00000002016/02/22            R01   0000
0074360701370225812016-02-22000000SELECT DENIM SA DE C          10000000000001.00MXP000000000REF:11499992             CIE:100000002016/02/22            P14   0000
0074360701370225812016-02-22000000SALDO ULTIMA TRANS            20000000000040.89MXP000000000                              00000002016/02/22                  0000
0074360701370225812016-02-19142070PAGO DE NOMINA                10000000000000.02MXP0000000000000000EGPAGO180216ESQ0MISMODI00000002016/02/18            T16   0000
0074360701370225812016-02-19000000PAGO DE NOMINA                10000000000000.02MXP000000000BBVA BANCOMER PRODUCTOS DE BAN00000002016/02/19            R01   0000
0074360701370225812016-02-19000000SALDO ULTIMA TRANS            20000000000041.08MXP000000000                              00000002016/02/19                  0000
0074360701370225812016-02-18041679SPEI ENVIADO                  10000000000000.01MXP0000000000180216PRUEBA SPEI            00000002016/02/18            T17   0000
0074360701370225812016-02-18041678SPEI ENVIADO                  10000000000000.02MXP0000000000180216PRUEBA SPEI            00000002016/02/18            T17   0000
0074360701370225812016-02-18041677SPEI ENVIADO                  10000000000000.02MXP0000000000180216PRUEBA SPEI            00000002016/02/18            T17   0000
0074360701370225812016-02-18002920DEPOSITO EFECTIVO/CHEQUE      00000000000001.00MXP0000000000029201                       00000002016/02/18            C02   0000
0074360701370225812016-02-18000000REEMBOLSO DE NOMINA           00000000000000.09MXP000000000BBVA BANCOMER PRODUCTOS DE BAN00000002016/02/18            R02   0000
0074360701370225812016-02-18000000REEMBOLSO DE NOMINA           00000000000000.01MXP000000000BBVA BANCOMER PRODUCTOS DE BAN00000002016/02/18            R02   0000
0074360701370225812016-02-18000000PAGO DE NOMINA                10000000000000.01MXP000000000BBVA BANCOMER PRODUCTOS DE BAN00000002016/02/18            R01   0000
0074360701370225812016-02-18000000PAGO DE NOMINA                10000000000000.01MXP000000000BBVA BANCOMER PRODUCTOS DE BAN00000002016/02/18            R01   0000
0074360701370225812016-02-18000000PAGO DE NOMINA                10000000000000.01MXP000000000BBVA BANCOMER PRODUCTOS DE BAN00000002016/02/18            R01   0000
0074360701370225812016-02-18000000PAGO A TERCEROS MISMA PLAZA CW10000000000000.01MXP000000000PRUEBA BANCOMER               00000002016/02/18            W01   0000
0074360701370225812016-02-18000000PAGO DE NOMINA                10000000000000.01MXP000000000BBVA BANCOMER PROD DE BCA ELEC00000002016/02/18            R01   0000
0074360701370225812016-02-18000000PAGO DE NOMINA                10000000000000.02MXP000000000BBVA BANCOMER PROD DE BCA ELEC00000002016/02/18            R01   0000
0074360701370225812016-02-18000000PAGO A TERCEROS MISMA PLAZA CW10000000000000.02MXP000000000PRUEBA BANCOMER               00000002016/02/18            W01   0000
0074360701370225812016-02-18000000PAGO A TERCEROS MISMA PLAZA CW10000000000000.02MXP000000000PRUEBA BANCOMER               00000002016/02/18            W01   0000
0074360701370225812016-02-18000000PAGO DE NOMINA                10000000000000.02MXP000000000BBVA BANCOMER PRODUCTOS DE BAN00000002016/02/18            R01   0000
0074360701370225812016-02-18000000PAGO DE NOMINA                10000000000000.03MXP000000000BBVA BANCOMER PRODUCTOS DE BAN00000002016/02/18            R01   0000
0074360701370225812016-02-18000000PAGO DE NOMINA                10000000000000.04MXP000000000BBVA BANCOMER PRODUCTOS DE BAN00000002016/02/18            R01   0000
0074360701370225812016-02-18000000PAGO DE NOMINA                10000000000000.09MXP000000000BBVA BANCOMER PROD DE BCA ELEC00000002016/02/18            R01   0000
0074360701370225812016-02-18000000PAGO DE NOMINA                10000000000000.18MXP000000000BBVA BANCOMER PRODUCTOS DE BAN00000002016/02/18            R01   0000
0074360701370225812016-02-18000000PDVBERE        BERE           10000000000001.00MXP000000000                         0775700000002016/02/18            Q01   0000
0074360701370225812016-02-18000000PAGO DE NOMINA                10000000000001.00MXP000000000BBVA BANCOMER PROD DE BCA ELEC00000002016/02/18            R01   0000
0074360701370225812016-02-18000000SALDO ULTIMA TRANS            20000000000041.12MXP000000000                              00000002016/02/18                  0000
0074360701370225812016-02-17073045SPEI ENVIADO                  10000000000000.01MXP0000000001773045ABONOS A MUNICIPIOS    00000002016/02/17            T17   0000
0074360701370225812016-02-17043391SPEI ENVIADO                  10000000000000.01MXP0000000001743391ABONOS A MUNICIPIOS    00000002016/02/17            T17   0000
0074360701370225812016-02-17043390SPEI ENVIADO                  10000000000000.01MXP0000000001743390ABONOS A MUNICIPIOS    00000002016/02/17            T17   0000
0074360701370225812016-02-17043389SPEI ENVIADO                  10000000000000.01MXP0000000001743389ABONOS A MUNICIPIOS    00000002016/02/17            T17   0000
0074360701370225812016-02-17043388SPEI ENVIADO                  10000000000000.01MXP0000000001743388ABONOS A MUNICIPIOS    00000002016/02/17            T17   0000
0074360701370225812016-02-17000000SALDO ULTIMA TRANS            20000000000042.54MXP000000000                              00000002016/02/17                  0000
0074360701370225812016-02-16000000PAGO A TERCEROS MISMA PLAZA CW10000000000000.01MXP000000000PRUEBABNC                     00000002016/02/16            W01   0000
0074360701370225812016-02-16000000DISPERSION                    10000000000000.02MXP000000000PRUEBAPUNTUAL                 00000002016/02/16            T30   0000
0074360701370225812016-02-16000000SALDO ULTIMA TRANS            20000000000042.59MXP000000000                              00000002016/02/16                  0000
0074360701370225812016-02-15303019SPEI RECIBIDO    1234567      00000000000002.00MXP0000000002120316000715NA21138 PRUEBA1  00000002016/02/15            T20   0000
0074360701370225812016-02-15103445CE9850314170116000206WH21151  00000000000008.79MXP000000000CONCEPTO7                     00000002016/02/15            Y01   0000
0074360701370225812016-02-15101050CE9850314160116000130ME11180  00000000000014.99MXP000000000CONCEPTO6                     00000002016/02/15            Y01   0000
0074360701370225812016-02-15093879SPEI ENVIADO                  10000000000000.01MXP0000000000000002FACTURA 245            00000002016/02/15            T17   0000
0074360701370225812016-02-15073740CE9850313130116000022CY11175  00000000000001.11MXP000000000CONCEPTO5                     00000002016/02/15            Y01   0000
0074360701370225812016-02-15070051CE9850314130116000022UA11150  00000000000001.00MXP000000000CONCEPTO4                     00000002016/02/15            Y01   0000
0074360701370225812016-02-15068974CE9850312110916000408DM41145  00000000000013.24MXP000000000CONCEPTO3                     00000002016/02/15            Y01   0000
0074360701370225812016-02-15067777CE9850312111216000520FQ41109  00000000000010.01MXP000000000CONCEPTO2                     00000002016/02/15            Y01   0000
0074360701370225812016-02-15064386CE9850312120316000715NA21138  00000000000002.00MXP000000000CONCEPTO1                     00000002016/02/15            Y01   0000
0074360701370225812016-02-15000000ABONO TRASPASO MISMA PLAZA CW 00000000000000.01MXP000000000PRUEBA TRASPASO               00000002016/02/15            W42   0000
0074360701370225812016-02-15000000ABONO TRASPASO MISMA PLAZA CW 00000000000000.02MXP000000000FONDEO NOMINA                 00000002016/02/15            W42   0000
0074360701370225812016-02-15000000PAGO CUENTA DE TERCERO        00000000000040.00MXP000000000BMOV    2982517302 PRUEBAS BNC00000002016/02/15            N06   0000
0074360701370225812016-02-15000000PAGO A TERCEROS MISMA PLAZA CW10000000000000.03MXP000000000FACTURA 305                   00000002016/02/15            W01   0000
0074360701370225812016-02-15000000BBVA BANCOMER PRODUC          10000000000001.00MXP000000000REF:4130116000022UA11150 CIE:000000002016/02/15            P14   0000
0074360701370225812016-02-15000000BBVA BANCOMER PRODUC          10000000000001.11MXP000000000REF:3130116000022CY11175 CIE:000000002016/02/15            P14   0000
0074360701370225812016-02-15000000BBVA BANCOMER PRODUC          10000000000002.00MXP000000000REF:2120316000715NA21138 CIE:000000002016/02/15            P14   0000
0074360701370225812016-02-15000000BBVA BANCOMER PRODUC          10000000000008.79MXP000000000REF:4170116000206WH21151 CIE:000000002016/02/15            P14   0000
0074360701370225812016-02-15000000BBVA BANCOMER PRODUC          10000000000010.01MXP000000000REF:2111216000520FQ41109 CIE:000000002016/02/15            P14   0000
0074360701370225812016-02-15000000BBVA BANCOMER PRODUC          10000000000013.24MXP000000000REF:2110916000408DM41145 CIE:000000002016/02/15            P14   0000
0074360701370225812016-02-15000000BBVA BANCOMER PRODUC          10000000000014.99MXP000000000REF:4160116000130ME11180 CIE:000000002016/02/15            P14   0000
0074360701370225812016-02-15000000SALDO ULTIMA TRANS            20000000000042.62MXP000000000                              00000002016/02/15                  0000
0074360701370225812016-02-12134023SPEI ENVIADO                  10000000000000.01MXP0000000000000001TEST AZTECA            00000002016/02/12            T17   0000
0074360701370225812016-02-12126875SPEI DEVUELTO                 00000000000000.01MXP0000000000000001TEST                   00000002016/02/12            T22   0000
0074360701370225812016-02-12126875SPEI ENVIADO                  10000000000000.01MXP0000000000000001TEST                   00000002016/02/12            T17   0000
0074360701370225812016-02-12005095SPEI ENVIADO                  10000000000000.05MXP0000000001102016PROGRAMADO             00000002016/02/12            T17   0000
0074360701370225812016-02-12000000REEMBOLSO DE NOMINA           00000000000000.01MXP000000000BBVA BANCOMER PRODUCTOS DE BAN00000002016/02/12            R02   0000
0074360701370225812016-02-12000000PAGO DE NOMINA                10000000000000.01MXP000000000BBVA BANCOMER PROD DE BCA ELEC00000002016/02/12            R01   0000
0074360701370225812016-02-12000000PAGO A TERCEROS MISMA PLAZA CW10000000000000.01MXP000000000PRUEBA CAPACITACIOON          00000002016/02/12            W01   0000
0074360701370225812016-02-12000000PAGO DE NOMINA                10000000000000.01MXP000000000BBVA BANCOMER PRODUCTOS DE BAN00000002016/02/12            R01   0000
0074360701370225812016-02-12000000PUBLISEG SA DE CV SO          10000000000000.01MXP000000000REF:15A0RUS3             CIE:000000002016/02/12            P14   0000
0074360701370225812016-02-12000000PAGO DE NOMINA                10000000000000.02MXP000000000BBVA BANCOMER PROD DE BCA ELEC00000002016/02/12            R01   0000
0074360701370225812016-02-12000000PAGO DE NOMINA                10000000000000.03MXP000000000BBVA BANCOMER PROD DE BCA ELEC00000002016/02/12            R01   0000
0074360701370225812016-02-12000000SALDO ULTIMA TRANS            20000000000000.63MXP000000000                              00000002016/02/12                  0000
0074360701370225812016-02-11141787PAGO DE NOMINA                10000000000000.01MXP0000000000000000PRUEBA                 00000002016/02/10            T16   0000
0074360701370225812016-02-11112404INTERBANCARIO ENVIADO         10000000000000.01MXP0000000001102168BBVA BANCOMER PRODUC TO00000002016/02/11            T06   0000
0074360701370225812016-02-11086105SPEI ENVIADO                  10000000000000.01MXP0000000002345678ABONOS A MUNICIPIOS    00000002016/02/11            T17   0000
0074360701370225812016-02-11086104SPEI ENVIADO                  10000000000000.01MXP0000000003456789ABONOS A MUNICIPIOS    00000002016/02/11            T17   0000
0074360701370225812016-02-11084831SPEI ENVIADO                  10000000000000.01MXP0000000001102168PRUEBA ALT             00000002016/02/11            T17   0000
0074360701370225812016-02-11000000CAJA POPULAR SAN RAF          10000000000000.01MXP000000000REF:00000000100100828282 CIE:100000002016/02/11            P14   0000
0074360701370225812016-02-11000000PDV8976JORGE   PREMIO         10000000000001.00MXP000000000                         0775700000002016/02/11            Q01   0000
0074360701370225812016-02-11000000SALDO ULTIMA TRANS            20000000000000.77MXP000000000                              00000002016/02/11                  0000
0074360701370225812016-02-10000000CARGO TRASPASO MISMA PLAZA CW 10000000000000.01MXP000000000FACT454                       00000002016/02/10            W41   0000
0074360701370225812016-02-10000000SALDO ULTIMA TRANS            20000000000001.83MXP000000000                              00000002016/02/10                  0000
0074360701370225812016-02-09069859SPEI ENVIADO                  10000000000000.01MXP0000000000902168BBVA BANCOMER PRODUC TO00000002016/02/09            T17   0000
0074360701370225812016-02-09046973SPEI ENVIADO                  10000000000000.01MXP0000000001234567nomina1                00000002016/02/09            T17   0000
0074360701370225812016-02-09035823SPEI ENVIADO                  10000000000000.01MXP0000000000005503103766721              00000002016/02/09            T17   0000
0074360701370225812016-02-09000000PAGO DE NOMINA                10000000000000.01MXP000000000BBVA BANCOMER PRODUCTOS DE BAN00000002016/02/09            R01   0000
0074360701370225812016-02-09000000CARGO TRASPASO MISMA PLAZA CW 10000000000000.01MXP000000000PRUEBA TRASPASO               00000002016/02/09            W41   0000
0074360701370225812016-02-09000000SAI SERVICIOS ADMINI          10000000000000.02MXP000000000REF:GIGJ9009098          CIE:100000002016/02/09            P14   0000
0074360701370225812016-02-09000000SALDO ULTIMA TRANS            20000000000001.84MXP000000000                              00000002016/02/09                  0000
0074360701370225812016-02-08076071SPEI ENVIADO                  10000000000000.01MXP0000000000802168TEST ED                00000002016/02/08            T17   0000
0074360701370225812016-02-08000000ABONO TRASPASO MISMA PLAZA CW 00000000000000.01MXP000000000FONDEO1 0180061301            00000002016/02/08            W42   0000
0074360701370225812016-02-08000000ABONO TRASPASO MISMA PLAZA CW 00000000000001.00MXP000000000BBVA BANCOMER PRODUC TOS DE BA00000002016/02/08            W42   0000
0074360701370225812016-02-08000000SALDO ULTIMA TRANS            20000000000001.91MXP000000000                              00000002016/02/08                  0000
0074360701370225812016-02-05034542SPEI ENVIADO                  10000000000000.01MXP0000000000000123PRUEBA                 00000002016/02/05            T17   0000
0074360701370225812016-02-05000000SALDO ULTIMA TRANS            20000000000000.91MXP000000000                              00000002016/02/05                  0000
0074360701370225812016-02-04004559SPEI DEVUELTO                 00000000000001.00MXP0000000000000008ZADQUIELMEOBLIGO       00000002016/02/04            T22   0000
0074360701370225812016-02-04004559SPEI ENVIADO                  10000000000001.00MXP0000000000000008ZADQUIELMEOBLIGO       00000002016/02/04            T17   0000
0074360701370225812016-02-04000000DISPERSION                    10000000000001.00MXP000000000ANITASPRUEBA                  00000002016/02/04            T30   0000
0074360701370225812016-02-04000000MASCAJA SA DE CV SFP          10000000000000.01MXP000000000REF:12347                CIE:100000002016/02/04            P14   0000
0074360701370225812016-02-04000000DISPERSION                    10000000000001.00MXP000000000PRUEBASVB                     00000002016/02/04            T30   0000
0074360701370225812016-02-04000000SALDO ULTIMA TRANS            20000000000000.92MXP000000000                              00000002016/02/04                  0000
0074360701370225812016-02-03000000SALDO ULTIMA TRANS            20000000000002.93MXP000000000                              00000002016/02/02                  0000
0074360701370225812016-02-02000000INTERESES MES ANTERIOR        00000000000000.11MXP000000000                              00000002016/02/02            C19   0000
0074360701370225812016-02-02000000I.S.R. DE INTERESES           10000000000000.01MXP000000000                              00000002016/02/02            C20   0000
0074360701370225812016-02-02000000SALDO ULTIMA TRANS            20000000000002.93MXP000000000                              00000002016/02/02                  0000
